:100000000C941A040C9437040C9437040C943704A1
:100010000C9437040C9437040C9437040C94370474
:100020000C9437040C9437040C94E52A0C94A12A00
:100030000C94E22B0C9437040C9437040C94370482
:100040000C9437040C9437040C9437040C94370444
:100050000C9437040C94BE2B0C9437040C94370486
:100060000C9437040C9437040C9437040C94370424
:100070000C9437040C9437040C9437040C94370414
:100080000C9437040C9437040C9437040C94370404
:100090000C9437040C9437040C9437040C943704F4
:1000A0000C9437040C9437040C94370405010902AE
:1000B000A10185020901A100050919012905150001
:1000C00025019505750181029501750381010501E1
:1000D000093009311581257F950275088106093897
:1000E0001581257F950175088106050C0A380215D2
:1000F00081257F950175088106C0C005010980A191
:1001000001850319012AB700150126B7009501756D
:10011000108100C0050C0901A101850419012AA064
:1001200002150126A002950175108100C00660FF2E
:100130000961A1010962150026FF0095207508815B
:10014000020963150026FF00952075089102C0057D
:10015000010906A101050719E029E7150025019508
:1001600008750181029501750881010507190029AB
:10017000FF150026FF009506750881000508190186
:100180002905950575019102950175039101C0FD41
:10019000377A585A000004E6D6B446020021011608
:1001A000000000742FE5A3E002B101135D003D885B
:1001B0008986D3DC0AE842C324925842588FD8E794
:1001C0005CA0D262C2871C798FC7BFAD1B4D915E08
:1001D0003B12D3EF11184989CD3807F7D048DA68B8
:1001E0000143AFB702E3845447E837720D13CDFFE4
:1001F0001FDE00BE8DA1AC95B6973951EFA55162B7
:100200007C2E49F0AB3231C30E280E4A9BE2A293FA
:100210007A6343B24F74C660D39C001470EDC4E49B
:1002200094CE3521FFD658117744967C96A41BA115
:100230009D27EECB88730DD7D3F62481E7E83F3FA7
:10024000AAF0D5091C6C47CA90CA54660B84F905FC
:100250001051617D019B02F88BDA490D7DB2524944
:1002600069A44D304C948FE8F4678CEF1EA2649E15
:10027000974F6FA3986390AA66C6C4B83FBA63123B
:10028000F2C869AD3125E12E47F1384A7EEDEA55D5
:100290008B9ADB9BCC6BAB502ADC3DD7F0095CF52D
:1002A00046049D537390EEB0231B90AFE5AD3B47E2
:1002B000C91BA36F9CDC6B5792CA55B21422AB7951
:1002C000A40000B2148982372180140001AF02B269
:1002D0000500007C606FE0B1C467FB020000000015
:1002E00004595A0001010101010101010102020248
:1002F00002020202020203030303030303030404D2
:10030000040404040405050505050606060606079B
:100310000707070708080808090909090A0A0A0B54
:100320000B0B0C0C0C0D0D0D0E0E0E0F0F0F1010F5
:10033000111111121213131414151516161717187C
:100340001819191A1A1B1B1C1D1D1E1E1F202021E7
:100350002222232424252626272829292A2B2C2D2E
:100360002D2E2F30313232333435363738393A3B4F
:100370003C3D3E3F404142434445464748494A4C44
:100380004D4E4F50515354555658595A5B5D5E5F10
:10039000616264656668696B6C6D6F7072737577A6
:1003A000787A7B7D7E8082838587888A8C8E8F9108
:1003B000939596989A9C9EA0A2A3A5A7A9ABADAF32
:1003C000B1B3B5B7BABCBEC0C2C4C6C9CBCDCFD11C
:1003D000D4D6D8DBDDDFE2E4E7E9EBEEF0F3F5F8C5
:1003E000FAFDFF14001A000800150017001C001881
:1003F000000C001200130004621600070009430AF3
:10040000000B000D430E000F0034721D001B61062F
:1004100064196805001100107836743771380000CF
:1004200000000000002B00284100002C422A0000A0
:10043000000000290000005200000000000000241D
:10044000002500260000003900500051004F000038
:10045000002D002100220023002E02E100000000F8
:1004600000000000002D021E001F0020002E0000D2
:1004700000000000000000010000000451270037C8
:100480000000001E021F0220022102220223022479
:1004900002250200004C00000000000000000035B2
:1004A00002000000000000340231020000000000E1
:1004B00000000000000000000033003302310000A3
:1004C00000000000000000045100000100000000D6
:1004D00000000026020000000000000000000000F4
:1004E000000000000027022F02000000000100357C
:1004F00002000001000000340230022F0000000062
:100500000000000000000000003300330230000053
:1005100000000000000000000000000000000000DB
:10052000000000005C00000000000000000000006F
:1005300000000000000000000000000000000000BB
:1005400000000000000000000000003A003B003CFA
:10055000003D003E003F00400041004200430000DB
:100560000000000000000001000000010000000089
:10057000000000000000000000000000000000007B
:10058000000000000000000000000000000000006B
:10059000000000000000000000000000000000005B
:1005A000000000000000000000000000000000004B
:1005B000000000000000000000000000000000003B
:1005C0000000000100010045036D0EA00E000002B6
:1005D00000020041036D0EA00E0000030001004662
:1005E000036D0EA00E0000040002002B036D0EA090
:1005F0000E8C070500010047036D0EA00E000006DB
:100600000002002D036D0EA00E0000070002004343
:10061000036D0EA00E00000800010048036D0EA03F
:100620000E0000090002002F036D0EA00E67070ADE
:1006300000020031036D0EA00E67070B00020033AD
:10064000036D0EA00E67070C00020035036D0EA0AF
:100650000E67070D00020037036D0EA00E67070E30
:1006600000020039036D0EA00E67070F0002003B69
:10067000036D0EA00E6707100002003D036D0EA073
:100680000E6707110002003F036D0EA00E670712F0
:1006900000020049036D0EA00E0000130002004B83
:1006A000036D0EA00E0000140001004D036D0EA09E
:1006B0000E0000150000000000ED06BA160000094B
:1006C000025B00030100A0FA09040000010301011C
:1006D00000092111010001224000070581030800E3
:1006E00001090401000203000000092111010001B9
:1006F00022220007058203200001070503032000D2
:100700000109040200010300000009211101000198
:10071000228100070584032000011201000200006D
:100720000008EB03F42F0100010203011C03760013
:10073000690061006C003A00660036003400630016
:10074000320062003300630000001E037600610087
:1007500075006C007400330035005F006B006100B1
:10076000740061006E006100000014036300680003
:100770007200690073005F00740061006E00000089
:100780000403090400000000000000000000000055
:100790000000000000000000000000000000000059
:1007A00000000000000000007E0F00D4FFFFFFC724
:1007B0000000007800000000000000002A2B280044
:1007C0000000000000000000000000000000002900
:1007D000000000002C1E3420212224342627252E40
:1007E000362D3738271E1F20212223242526333378
:1007F000362E37381F0405060708090A0B0C0D0EA4
:100800000F101112131415161718191A1B1C1D2F6F
:100810003130232D350405060708090A0B0C0D0E8F
:100820000F101112131415161718191A1B1C1D2F4F
:100830003130354C11241FBECFEFDAE0DEBFCDBF23
:1008400011E0A0E0B1E0E8E0F9E602C005900D9209
:10085000A237B107D9F724E0A2E7B1E001C01D92A9
:10086000A833B207E1F70E94092C0C945E340C9473
:100870000000E8EDF0E080818E7F80831092E2003E
:100880001092DA001092E100A0EEB0E08C9181604D
:100890008C9380818F77808319BCA7EDB0E08C9119
:1008A0008E7F8C9380818F7E808310921C040895AC
:1008B0002091E4003091E50095E6A9012091EC003B
:1008C000822F817020FF06C08091E80080FF06C063
:1008D00080E008952091E80022FD1AC0809129044B
:1008E000882389F0853089F08091EB0085FD0FC069
:1008F0002091E4003091E50042175307F9F291503E
:10090000E1F684E0089582E0089583E0089581E0AF
:100910000895EF92FF920F931F93CF937C018B0169
:100920000E945804C82F811117C08091E80085FDEE
:100930000BC08091E8008E778093E8000E945804F5
:10094000882399F3C82F08C0F70181917F01809314
:10095000F1000150110949F78C2FCF911F910F9190
:10096000FF90EF90089580912B0487FF13C0809132
:10097000E80082FF06C08091E8008B778093E80052
:1009800004C0809129048111F2CF08958091290437
:100990008823D9F38091E80080FFF8CF8091E800A8
:1009A0008E77ECCF982F9093E900242F762F50E08C
:1009B000891731F07091EC002091ED005091F0001A
:1009C00021FD07C09F5F973071F78093E90081E0B8
:1009D00008953091EB003E7F3093EB003091ED00B5
:1009E0003D7F3093ED003091EB0031603093EB00B0
:1009F0007093EC002093ED005093F0002091EE00F6
:100A000027FDE0CF80E00895B0E0A0E0EAE0F5E067
:100A10000C94AB33C8EDD0E088818F7E8883E7EDFE
:100A2000F0E080818160808384E082BF81E08093F8
:100A30001C0488818E7F888302EE10E0F80110820A
:100A40001092DA0081EEC82ED12CF6011082888136
:100A50008F77888388818068888388818F7D888369
:100A600019BC1092290410922A04109228041092A2
:100A7000270490EEE92EF12CF70180818B7F808393
:100A800088818160888342E060E080E00E94D20437
:100A9000F60180818E7F8083F80180818160808370
:100AA000808188608083F70180818E7F8083888148
:100AB00080618883CDB7DEB7E8E00C94C733FC01D2
:100AC000809131049091320486179707A0F0611548
:100AD000710529F49091E8009E779093E80090E0EA
:100AE0006115710551F4911108C08091E80082FFF1
:100AF00034C080E00895BC01F2CF8091290488239E
:100B0000C1F18530C1F18091E80083FD30C0809152
:100B1000E80082FDEACF8091E80080FFE1CF80917C
:100B2000F3002091F200382F6115710519F028307B
:100B3000310558F091E02830310509F090E020911E
:100B4000E8002E772093E800CBCF81918093F100CD
:100B5000615071092F5F3F4FE7CF809129048823AF
:100B600041F0853041F08091E80083FFBECF81E005
:100B7000089582E0089583E00895089580911E0409
:100B8000089587E797E7909301088093000888E12C
:100B90009AE00FB6F894A895809360000FBE9093EA
:100BA0006000FFCF9C014FB7F8948091150490919D
:100BB0001604A0911704B09118044FBF821B930B29
:100BC00008952FB7F89460911504709116048091E0
:100BD0001704909118042FBF08952FB7F8948091AF
:100BE000150490911604A0911704B09118042FBF1A
:100BF000089520911204309113042817390771F0D9
:100C00009093130480931204E0911004F091110466
:100C1000309721F00084F185E02D09950895209109
:100C20000E0430910F042817390771F090930F04C8
:100C300080930E04E0911004F0911104309721F09C
:100C40000680F781E02D09950895E0911004F09158
:100C50001104309729F00190F081E02D0995089555
:100C600080E00895CF93DF93EC014091030450910D
:100C7000040460910504709106042FB7F8948091E4
:100C8000150490911604A0911704B09118042FBF79
:100C9000841B950BA60BB70B843F9140A105B105B2
:100CA00018F58091030490910404A0910504B0917B
:100CB00006048093FF0390930004A0930104B09373
:100CC000020484EF91E0A0E0B0E08093FB039093F6
:100CD000FC03A093FD03B093FE03D0930B04C093D9
:100CE0000A04DF91CF9108950E94E1056093FF030C
:100CF00070930004809301049093020482E390E0D7
:100D0000A0E0B0E0E2CFFC018481862351F492811F
:100D10009923B9F06923808583FF05C081E06111C3
:100D20000FC080E00895892F8F7092959F70982B47
:100D3000862F8F7062956F70682B81E09613F1CFCC
:100D4000089581E0FDCF452B39F0682381E06F3FA6
:100D500009F080E08170089581E0FCCFDC016091B2
:100D6000F7038091F803962F891301C00895292F66
:100D700030E0F901EE0FFF1FE151FC4F408151813E
:100D80004A175B07A1F487E08A9FA0018B9F500D53
:100D9000112449545C4F81E0FA0184839613E6CF15
:100DA0002F5F3F4F237033272093F70308952F5F62
:100DB0003F4F922F9370D8CF109254031092530349
:100DC000E7EBF3E08581811102C014821682379629
:100DD00083E0EF3EF807B1F70895B0E0A0E0E3EF5D
:100DE000F6E00C94A9338FEF9FEF4430510508F4DF
:100DF00069C04091080341FB882780F990E0880F83
:100E0000991F42FB002700F910E0000F111F000F8F
:100E1000111F802B912B40FBCC24C0F8D12C8C29A6
:100E20009D2943FB222720F9C22FE0E0DE2F53E06B
:100E3000CC0FDD1F5A95E1F78C2B9D2B44FBAA2785
:100E4000A0F9B0E0E4E0AA0FBB1FEA95E1F78A2B16
:100E50009B2B45FBEE27E0F9F0E0A5E0EE0FFF1F2E
:100E6000AA95E1F78E2B9F2B46FB222720F930E035
:100E7000B6E0220F331FBA95E1F7822B932B47FB85
:100E8000222720F930E03695322F222737952795F3
:100E9000822B932B20910903322F3170F32EE82EF1
:100EA000F92A26952170B22EBB0CA82EBF28C501A9
:100EB000BB0CAA0BBB0BFB0180839183A283B38382
:100EC00090E080E0CDB7DEB7EAE00C94C533EBE20A
:100ED000F3E0848195812AE030E0B9010E946C330F
:100EE0006093160186818093150182858093140199
:100EF00084858093130186859785B9010E946C33A0
:100F0000609312018089809311018289809310017E
:100F1000848980930F01089580912B0390912C0375
:100F200090931801809317010895FA01811101C06F
:100F3000FB010995089580912402982F9E7F39F432
:100F4000809124028170826080932402089584300D
:100F5000B8F708950E94ED059C0190911D028091C3
:100F60001E02982B21F030931A02209319029091BF
:100F70001F0280912002982B21F0309318022093B9
:100F80001702E0911004F0911104309749F082E0CB
:100F900080931B020480F581E02D8BE192E009959E
:100FA000089590911D02803F59F480911E0287FFA1
:100FB0000DC010921E0291110BC01092150208C0B4
:100FC000813F81F480911E0218169CF3992381F0D1
:100FD00080911F0290912002892B09F064C0109229
:100FE00014020895823F49F497FFF0CF10921D023A
:100FF00080911E028111ECCFE0CF833F19F41916C6
:10100000ACF3E4CF20911F02893F29F41216F4F6C5
:1010100010921F02DBCF8A3F19F427FFD7CFF8CFFA
:10102000209120028B3F29F427FFD0CF109220027D
:10103000CDCF8C3F19F41216CCF3C8CF843F31F4D6
:1010400080911C028E7F80931C02C0CF853F21F4CB
:1010500080911C028D7FF7CF863F21F480911C0286
:101060008B7FF1CF873F21F480911C02877FEBCFEC
:10107000883F21F480911C028F7EE5CF8D3F31F4B3
:10108000809116028E7F80931602A0CF8E3F21F4AE
:10109000809116028D7FF7CF8F3F09F097CF809117
:1010A00016028B7FF0CF08958091160280FF0CC04E
:1010B0006091100170E0759567957595679561155C
:1010C000710549F1862F089581FF06C060911001D6
:1010D00070E075956795F3CF6091100182FD0BC0AC
:1010E000909114029923A1F060910F018091100159
:1010F000961738F0682F70E06038710500F38FE7BD
:101100000895899FC001112470E00E948033F4CFBC
:1011100061E070E0D7CF81E0089580911602609180
:1011200033037091340380FF16C020911401269F71
:10113000C001279F900D1124BC0176956795769587
:1011400067956038710508F043C06115710509F4B1
:1011500041C0862F089581FF0BC020911401269F66
:10116000C001279F900D1124BC0176956795E9CFAA
:1011700082FF09C0809114019B01829FB001839F6F
:10118000700D1124DECF209115022223D1F290910F
:10119000130180911401482F50E0291748F0CB012A
:1011A000849FB001859F700D949F700D1124C9CF4D
:1011B000289F90011124269FA001279F500D369F44
:1011C000500D1124692F70E0CA010E946C33B9CF11
:1011D0008FE7089581E00895803F31F40E948D08E3
:1011E000819580931E020895813F19F40E948D0815
:1011F000F8CF823F31F40E948D08819580931D02C3
:101200000895833F19F40E948D08F8CF893F29F48F
:101210000E94540880931F0208958A3F21F40E947F
:1012200054088195F7CF8B3F31F40E945408819583
:101230008093200208958C3F19F40E945408F8CF3F
:10124000843F31F480911C02816080931C020895D8
:10125000853F21F480911C028260F7CF863F21F404
:1012600080911C028460F1CF873F21F480911C02A1
:101270008860EBCF883F21F480911C028061E5CF2C
:101280008D3F31F48091160281608093160208959B
:101290008E3F21F4809116028260F7CF8F3FB9F71D
:1012A000809116028460F1CF80E00895F894E82FD1
:1012B000E295EF70F0E031A1282F2F7081E090E0EF
:1012C00001C0880F2A95EAF7982F9095932391A350
:1012D00092A1892B82A3789408959091080392FF9C
:1012E00006C0282F28712830F9F4877F846093FF87
:1012F00006C0282F28712831F1F4877E846120915F
:10130000090320FF06C0382F38713830D9F4877FA1
:10131000816021FF06C0282F28712831D1F4877EF3
:10132000816194FD877E0895282F24712430F9F679
:101330008B7F8860DCCF282F2471243101F78B7ECE
:101340008861DDCF382F3171313019F78E7F886099
:10135000E0CF282F2171213121F78E7E8861E1CFE6
:10136000CF93DF93EC0182389105B1F108F040C0D2
:101370008133910509F49DC048F58932910509F43E
:101380008DC08A9709F49CC0C11521E5D20708F0E9
:10139000C3C0C11530E5D30708F01EC1C83ED10552
:1013A00008F0A3C0C03ED10588F5C83AD10508F0C1
:1013B0008EC0C53AD10508F007C1C130D10531F161
:1013C000209721F1C430D10508F545C0853391053A
:1013D00009F45FC0C997C1F680910803837009F0D2
:1013E00044C18091090383FF11C0C9E2D0E00EC05F
:1013F000833E910599F170F4803E910501F1823EA2
:10140000910511F68091080382FD21C0CE01DF9184
:10141000CF910895863E910561F1873E910571F166
:10142000843E910509F0B0CF8091090381FFEECF92
:1014300080910803C7EED0E084FD0DC0E7CF809116
:10144000080380FD33C09091090390FFDFCFC3EE06
:10145000D0E084FFDBCFD0E0C0E0D8CF809108039C
:1014600082FD00C19091090390FDFFC084FFCECFA3
:10147000F2CF8091080383FDDDCFC8CF80910803B0
:1014800083FDF6C09091090391FFF0CFC4EED0E048
:10149000BDCF8091080385FFB9CFA7CF8091080306
:1014A00085FDE9C08091090383FFB0CFC9E3D0E097
:1014B000ADCF8091080386FFA9CFCAE2D0E0A6CFC6
:1014C0008091080386FFA2CFC1E3D0E09FCFCF3B3E
:1014D000D10508F6C85AD0E0CC0FDD1FC95DDE4F3C
:1014E0000990D881C02DD46491CFC11540E2D407B2
:1014F00058F4C11581E0D80708F088CFC03FD10566
:1015000008F4A9CFD06582CFC11520E4D20708F432
:10151000A2CFDF70D06A7ACFC11535E5D30718F5B1
:10152000C11544E5D40708F085C0C11583E5D80787
:1015300008F06CC0C11522E5D20708F462C0CE01E4
:101540008370992721E030E002C0220F331F8A9573
:10155000E2F7C695C69580E2C89FE0011124C22B30
:10156000D32BDC6853CFC11539E5D307A8F4C115D7
:1015700048E5D40708F063C0C11586E5D80708F030
:101580006ACF8C2F0E946D09C82FD0E0DC2FCC27AA
:10159000CC27DF71D0623ACFC1152AE5D20708F413
:1015A00053C0CE0190568115904208F054CF8D2F34
:1015B0008F710E946D0990E0982F882788279F716E
:1015C0009C012C2BE901E6CFC55AD0E0CC5DDE4F63
:1015D000C881D0E0D0641ACF2C2F26952695237091
:1015E00040E2249F900111248C2F8370C1E0D0E051
:1015F00002C0CC0FDD1F8A95E2F7C22BD32BDD682A
:1016000005CFDC2FCC27C16FD06A00CFCE0183700D
:10161000992721E030E002C0220F331F8A95E2F7BC
:10162000C695C69540E2C49FE0011124C22BD32B7E
:10163000DA68ECCEDC2FCC27C46FD06AE7CEDC2F83
:10164000CC27C06FD06AE2CE8C2F8F700E946D09BC
:1016500034E0D695C7953A95E1F7CF709C2FEC0111
:10166000D069D4CEC2EED0E0D1CEC0EED0E0CECEA6
:10167000C6EED0E0CBCEC5E3D0E0C8CE8091E80185
:10168000882331F01092E8011092E7011092E601F0
:101690000895CF93C82F8091090382FF0CC08091D9
:1016A000E8018C1741F00E94ED059093E7018093CB
:1016B000E601C093E801CF910895809590910A03C7
:1016C000982390930A0308951092DD011092DC0193
:1016D0001092DB01089580912D0390912E03892BA8
:1016E00089F00E94ED052091E6013091E701AC01FF
:1016F000421B530B81E020912D0330912E034217A2
:10170000530708F480E081700895E6E7F1E09191D5
:10171000891303C0DF0111971C9291E0EC37F907A0
:10172000B1F70895A6E7B1E0EFEF90E02D918217B1
:1017300051F0EF3F19F4211101C0E92F9F5F96305E
:10174000A9F7EF3F09F408950E2E000CFF0BEC589B
:10175000FE4F828308952091DA0190919901291317
:1017600002C080E0089530E0F90153E0EE0FFF1F62
:101770005A95E1F7E656FE4F5181561306C0508147
:10178000581303C05281541304C02F5F3F4F27707A
:10179000E6CF81E008958091DA0190919901981344
:1017A00001C008958F5F8770FACF292F943078F5A4
:1017B0008A3068F590E03AE0239F800D911D112456
:1017C000682F677023E0969587952A95E1F7FC01CD
:1017D000EE0FFF1FE80FF91FEE57FE4F50E040E0FD
:1017E00080E0219130E0062E02C0369527950A94BC
:1017F000E2F721703327042E01C0220F0A94EAF782
:10180000822B4F5F5F4F4330510559F7089580E0B9
:101810000895292F943098F58A3088F590E03AE0C1
:10182000239F800D911D1124282F277041E001C0B6
:10183000440F2A95EAF723E0969587952A95E1F7D4
:10184000FC01EE0FFF1FE80FF91FEE57FE4F30E0CF
:1018500020E070E05191DF011197CB01022E02C010
:10186000969587950A94E2F7817081958527842360
:1018700085278C932F5F3F4F2330310559F708950B
:1018800092959F70963091F058F4925F9F709230CD
:1018900058F4803F19F030F4883E30F481E0089528
:1018A0009A5FF4CF843FD1F380E00895883EB0F38F
:1018B000813FD1F7F3CF9C013A9521153F4150F577
:1018C000FC01EE27F170BC0166277270AC01442761
:1018D00054709C012227387094FF0EC080E1EF2BDA
:1018E00009F480E0672B09F08062452B09F08064E1
:1018F000232B89F08068089581E0EF2B09F480E0C4
:10190000672B09F08260452B09F08460232B19F0C6
:101910008860089580E008958093190470931B04F3
:1019200060931A04809129048430F9F48093E900CB
:101930008FEF9091E800815095FD06C095ED9A9546
:10194000F1F700008111F5CF8091E80085FF0DC00F
:1019500050E040E063E070E089E194E00E94890497
:101960008091E8008E778093E8000895BC0184E0C0
:101970000E948C0C0895BC0183E00E948C0C089599
:101980009C0184E08093E9009FEF8091E8009150F2
:1019900085FD06C085ED8A95F1F700009111F5CF20
:1019A0008091E80085FF0CC050E040E066E070E008
:1019B000C9010E9489048091E8008E778093E80035
:1019C0000895CF93DF93EC0181E08093E9008FEFDE
:1019D0009091E800815095FD06C095ED9A95F1F73C
:1019E00000008111F5CF8091E80085FF14C050E020
:1019F00040E068E070E0CE010E9489048091E80038
:101A00008E778093E80088E0FE01AFE1B4E00190BA
:101A10000D928A95E1F7DF91CF910895019708F42F
:101A20000895EFE9FFE03197F1F700C00000F6CF2D
:101A30008091240280FF27C0519A3BB13D7F2BB19A
:101A400022604FB7F89481E292E0FC015191CF01FE
:101A500068E02BB9000000C057FF3BB9550F0000EC
:101A600000C000C000C03BB900C06A9591F7F2E029
:101A700084329F0751F74FBF8FE594E00197F1F74C
:101A800000C00000089510922202109221021092CC
:101A90002302D2CF0F931F93CF93DF930BE213E078
:101AA000C7EBD1E0CE010E940E34F80181938F0183
:101AB0002196CB3DF1E0DF07A9F7CDECD5E0FE01A3
:101AC00085919491009711F0FC0109952C96F6E010
:101AD000C93CDF07A1F7DF91CF911F910F910895C6
:101AE0000F931F93CF93DF93853030F5643020F54B
:101AF0004A3010F5C42FD0E0CC0FDD1F24E1629FE7
:101B0000C00DD11D112430E5839FC00DD11D1124BE
:101B1000CE0187960E940E34082F10E0102F002768
:101B2000CE0188960E940E349801282BC901DF91BE
:101B3000CF911F910F91089590E080E0F8CF462F4C
:101B40002091060330910703232B99F4703F39F459
:101B5000603F79F4809104039091050308958530E6
:101B600040F4743030F46A3020F4672F0E94700D16
:101B7000089590E080E00895CF92DF92FF920F9356
:101B80001F93CF93DF936C01009133048091E9019F
:101B9000082BC7E0D0E010E0FC2EC8010C2E02C0DC
:101BA000959587950A94E2F780FD0CC02197A0F7E0
:101BB000F12C8F2DDF91CF911F910F91FF90DF902E
:101BC000CF900895B6018C2F0E949F0D0E94B009FE
:101BD000019761F3EECFCF93DF93EC010E94BC0D30
:101BE000BE010E949F0D0E94B009DF91CF91089520
:101BF000CF93DF93EC014B815C81698188810E94E6
:101C0000A306811110C08E819F81009739F00E9438
:101C1000B0090E94400CDF91CF910895888199818D
:101C20000E94EB0DF6CF80E0F6CFA5E0B0E0EBE14F
:101C3000FEE00C94B03349835A8389819A816623EC
:101C400099F0222389F00E94BC0D182F682F8981FA
:101C50009A810E94090C69817A81812F0E949F0DCF
:101C60002596E3E00C94CC330E94D50B182FF3CFCC
:101C7000FC01262F86819781009739F4408151819C
:101C80006281738184810E94150E089583E290E041
:101C90000E940E348B3889F484E290E00E940E3466
:101CA000863D59F485E290E00E940E3491E086383A
:101CB00009F090E0892F8170089580E0FCCFCF93E8
:101CC00084E090E00E940E34C82F82E290E00E94EF
:101CD0000E34982F8C2FCF910895DB01FC013296A2
:101CE000259134914217530758F0FC0134966591C1
:101CF0007491A901CD010E94EE3390E080E0089537
:101D00008FEF9FEF08950F931F93CF93DF930BE215
:101D100013E0C7EBD1E0CE010E940E34F8016191CF
:101D20008F01681719F0CE010E9422342196CB3D15
:101D3000F1E0DF0781F7DF91CF911F910F910895B7
:101D4000DA019C012E5F3F4FF90145915491F90151
:101D500025913491A217B30758F0FC013496859170
:101D600094910E94EE330E94830E90E080E00895EB
:101D70008FEF9FEF0895CF93DF93CBE7D2E060E042
:101D8000CE010E9422342196C11584E0D807B9F70C
:101D9000DF91CF9108951F93CF93DF93122F85305A
:101DA000E0F46430D0F44A30C0F4C42FD0E0CC0F5B
:101DB000DD1F94E1699FC00DD11D112490E5899F1D
:101DC000C00DD11D1124632FCE0187960E942234AD
:101DD000612FCE0188960E942234DF91CF911F910E
:101DE0000895CF93C82F6FEF81116BE883E290E0E5
:101DF0000E9422346FEFC11166ED84E290E00E94F0
:101E000022346FEFC11166E885E290E00E9422342F
:101E1000CF910895CF93C92F682F84E090E00E945E
:101E200022346C2F82E290E00E942234CF910895F8
:101E3000AAE0B0E0EEE1FFE00C94A7330CE812E07A
:101E40008AE7C82E82E0D82E9BE2E92E92E0F92E96
:101E500027E0922E39E7A32E32E0B32E8824839414
:101E6000D6010D931D936D014AE050E0B701CE01FC
:101E700001960E94FE33F8013896DF01892D1D92EC
:101E80008A95E9F789819A81D80111969C938E935E
:101E90008F8112968C9312978D8113968C93139742
:101EA000888514968C931497898515968C9315972D
:101EB0008B819C8117969C938E93169718961C92F3
:101EC00018978A8587FF3CC01E961C921E921D970C
:101ED00080FF03C0D80118968C9281FF04C0F801DE
:101EE00090859260908782FF07C0D80118969C91D8
:101EF0001897946018969C9383FF04C0F80190850E
:101F00009860908784FF07C0D80118969C91189715
:101F1000906118969C9385FF04C0F80180858062CB
:101F20008087015F1F4FFAE0EF0EF11C8BE7E81688
:101F300082E0F80609F094CF2A96ECE00C94C333C3
:101F4000F801B686A586C4CFAAE0B0E0EAEAFFE0D1
:101F50000C94AB33E9E2F2E080E5DF011D928A9553
:101F6000E9F7E7EBF3E088E3DF011D928A95E9F7F3
:101F700089E2C82E82E0D82E7F010BED11E0F70137
:101F8000D182C0824AE050E0B801CE0101960E94A1
:101F9000FE3388E0FE013196D60101900D928A95BC
:101FA000E1F789859A85D70113969C938E931297B2
:101FB000BAE0CB0ED11CE7E0EE0EF11C065F1F4F1E
:101FC0000B32F2E01F07D9F62A96E8E00C94C733EB
:101FD000CF92DF92EF92FF926B017C010E949B07F0
:101FE000B701A60188E090E00E943434FF90EF90A2
:101FF000DF90CF900895B0E0A0E0E1E0F0E10C9434
:10200000A733D82FC62FD42E822EC0902402C0FE14
:1020100021C08C2D8E7F823059F4E42FF0E0ED51F9
:10202000FD4F61111CC02491F22FE22FC0FC8CC027
:10203000D0932502C0932602D0922702882051F027
:1020400060912402709125028091260290912702CE
:102050000E94E80FCDB7DEB7ECE00C94C333E62E58
:10206000F12CE4919E2E0E2F10E026E0D29FC001AD
:1020700011242FEF30E0B9010E946C338D2F90E0D6
:10208000880F991FF5E5F69FA001F79F500D1124C9
:10209000841B950BB82EBB0CB80EA9014E195F0915
:1020A000409FC001419F900D509F900D1124F92F2A
:1020B000CB9DA0011124452F5527D901A41BB50B99
:1020C000A09FA001A19F500DB09F500D1124D901D8
:1020D000AB19B1095D01AE9CD001AF9CB00DBE9CA7
:1020E000B00D1124AB2FBB272A1B3B0B209FD00127
:1020F000219FB00D309FB00D11242B2F6230710540
:10210000A1F050F46115710509F490CF61307105AB
:1021100081F0292FF52F8ACF6430710569F080F0A6
:102120006630710509F482CFF4CF2E2FE92FFB2FF3
:102130007DCF2E2FE52F7ACF292FFE2FEB2F76CFB5
:10214000E92FF92D252F72CFE0932202209321024F
:10215000F09323020E94180D6BCFE4E2F2E043817A
:1021600021E1421B08F440E021E0628181810E946C
:10217000FB0F0895E4E2F2E0438121E1420F08F40D
:102180004FEF21E0628181810E94FB0F0895E4E21C
:10219000F2E0628121E1621B08F460E021E043810A
:1021A00081810E94FB0F0895E4E2F2E0628121E167
:1021B000620F08F46FEF21E0438181810E94FB0FE1
:1021C0000895E4E2F2E0818121E043816281885058
:1021D0000E94FB0F0895E4E2F2E0818121E0438157
:1021E0006281885F0E94FB0F0895809128028823F6
:1021F00019F0815080932802609124027091250289
:1022000080912602909127020E94E80F0895809104
:102210002802833018F48F5F809328026091240293
:102220007091250280912602909127020E94E80F6A
:1022300008958091240280FF19C08170826080938C
:102240002402662351F0609124027091250280914E
:102250002602909127020E94E80F20E04091270279
:1022600060912602809125020E94FB0F08958091C3
:1022700024028695815009F481E061E00E941911E1
:10228000089561E081E00E9419110895E4E2F2E00E
:1022900083E0808311828FEF828383831482608145
:1022A0007181828193810E94E80F0895A8E0B0E0D7
:1022B000ECE5F1E10C94A7338E010F5F1F4F88E02E
:1022C000F80111928A95E9F795E5E92E91E0F92E4A
:1022D0006801AA24A394B12CF70181917F018F3F5B
:1022E00009F446C0F894E82FE295EF70F0E021A1E0
:1022F0008F70A50102C0440F551F8A95E2F7CA01ED
:10230000922F982B91A392A18095892382A37894F0
:1023100000C0E9E5F1E021E030E0912C812C419111
:102320004F3F09F467C0A42FA295AF70B0E090961C
:102330008C9190E04F7002C0959587954A95E2F791
:1023400080FD58C0C901882A992A220F331F51E005
:10235000E336F50721F7F701319780818F3F11F0C0
:102360000E94560980EA8A95F1F7F60191828082EF
:10237000F2E0CF0ED11C49E5E41641E0F40609F085
:10238000ABCF48E050E0B8018DEE91E00E94E13320
:10239000892B99F188E0F801ADEEB1E001900D9242
:1023A0008A95E1F781E08093EC010E94ED0590931E
:1023B000EB018093EA018091EA019091EB010E9488
:1023C000D2050597F0F048E050E06DEE71E08CE04A
:1023D00092E00E94E133892BC9F088E0EDEEF1E054
:1023E000ACE0B2E001900D928A95E1F781E01092A5
:1023F000EC0108C090E080E0A6CF8091EC01811153
:10240000DACF80E02896ECE00C94C33380E0EFCF85
:1024100080910A0390913404892B809374018091F8
:10242000E801882309F180912D0390912E03892BD7
:1024300029F00E946B0B81110E943E0B8091740168
:102440009091E801892B8093740120E086E791E068
:10245000FC013191CF0131112F5FF1E08C379F07E3
:10246000B9F721110E943E0B80910704809590914D
:102470007401892390910804892B8093740148E0AA
:1024800050E06EED71E084E791E00E94E133892B2A
:10249000A9F088E0E4E7F1E0AEEDB1E001900D9243
:1024A0008A95E1F7E0911004F0911104309731F032
:1024B0000280F381E02D84E791E0099508958091F1
:1024C0001901877F80931901909134049D7F909327
:1024D000340484FF08C08F7E8093190180910A0321
:1024E000826080930A038091190185FF08C08F7D67
:1024F0008093190180910A03806280930A030E94ED
:102500000812089590E080E00E940F0690E080E0BD
:102510000E94F905109234040E94081286E0EBE153
:10252000F2E0DF011D928A95E9F7109215021092F0
:102530001402109216020E94AA0708958093330491
:102540000E948212089580913304982F96709630DD
:1025500021F488600E949E120895877FFBCF21E0BE
:1025600030E001C0220F8A95EAF72095809133046C
:1025700082230E949E1208959091DD018095892307
:102580008093DD01282F277091F4282F082E000C4E
:10259000330B9217130659F09091090392FF07C06D
:1025A0008595859585950E94AF120E94640B0895CC
:1025B0009091090392FB222720F9281769F080FBEC
:1025C00092F99093090380910803909109030E9466
:1025D0000A0F82E00E94BC12089521E030E001C0A1
:1025E000220F8A95EAF780913304822B0E949E1273
:1025F00008959091090392FF10C098E0899F90017F
:102600001124622B6093DD010E94ED120E94ED0502
:102610009093DC018093DB0108950E94ED120895F0
:102620008093E9010E948212089510920A03E6E75E
:10263000F1E086E0DF011D928A95E9F70E9482129F
:102640000895AAE2B0E0E7E2F3E10C94B0338BE244
:1026500094E02091F100DC012D93CD01B4E08333AF
:102660009B07B9F780912C04833009F472C0B8F449
:10267000813009F449C0823009F4B3C08091E80088
:1026800083FF96C280912B0490912C049A3008F01D
:102690008FC2E92FF0E0E05AFB4C0C9494338A305F
:1026A00009F48EC08B3009F471C0893039F78091FC
:1026B0002B04813219F780912F04909130040097F8
:1026C00011F00297D9F68091E800877F8093E800A7
:1026D0008091E80082FF38C09091F3008091F20071
:1026E000029731F48091F100813011F0863021F4AD
:1026F0008091F10080931E048091E8008B77809395
:10270000E8000E94B304BACF80912B04813A09F00B
:10271000B5CF8091E800877F8093E80080912F04F7
:1027200090913004892B61F468E08FE194E070E0CF
:102730000E945F058091E8008B778093E8009ECF30
:1027400060E090E080E0F3CF809129048111C0CF58
:1027500095CF80912B04813A09F090CF80912F047E
:1027600090913004892B09F089CF8091E800877F10
:102770008093E8008091E80080FFFCCF80911B01EE
:102780008093F1008091E8008E77B9CF80912B047F
:10279000813209F073CF80912F0490913004892BFE
:1027A00009F06CCF8091E800877F8093E8000E9459
:1027B000B30480912D0480931B010E9415135ECFFA
:1027C00080912B04813209F059CF8091E800877FF6
:1027D0008093E8000E94B30480912E0480931D042E
:1027E0004DCF80912B04813A09F048CF8091E800C9
:1027F000877F8093E8008091E80080FFFCCF809184
:102800001D04BECF803899F0823809F0D1C1809183
:102810002F048F70873008F0CBC18093E90080913E
:10282000EB0085FB882780F91092E90006C08091B3
:10283000270490912804911182609091E800977F7D
:102840009093E8008093F1001092F1008091E800ED
:102850008E77AAC1882309F498C1823009F0A8C1F3
:1028600080912D0481119BC180912F048F702FEFD7
:10287000280F263008F09CC18093E9002091EB00DE
:1028800020FF8DC1933031F48091EB008062809302
:10289000EB0085C19091EB0090619093EB0021E0FB
:1028A00030E001C0220F8A95EAF72093EA001092E7
:1028B000EA008091EB008860EACF811179C1109124
:1028C0002D041F778091E3008078812B8093E300B3
:1028D0008091E800877F8093E8000E94B304809194
:1028E000E80080FFFCCF8091E30080688093E300E4
:1028F00082E0111183E0809329045AC1805882300C
:1029000008F056C120912D0430912E042C3DE3E0B7
:102910003E07A1F583E08A838AE289834FB7F89462
:10292000DE01139620E03EE051E2E32FF0E0509309
:102930005700E49120FF03C0E295EF703F5FEF7016
:102940008E2F90E0EA30C0F0C7968D939D932F5F55
:10295000243159F74FBF8091E800877F8093E800CA
:102960006AE270E0CE0101960E945F058091E80066
:102970008B778093E8001CC1C096E7CF80912F042D
:1029800090913004432F55274330510509F44AC034
:1029900078F54130510509F485C08BE590E0EFEB07
:1029A000F6E04230510509F003C12091E800277F8D
:1029B0002093E8002091310430913204821793076C
:1029C00008F49C0140E02115310509F070C0411167
:1029D0006EC08091E80082FDC9CF809129048823D0
:1029E00029F2853019F28091E80083FFF2CFBECF43
:1029F0004132510509F447C04232510509F0D8C0AF
:102A00008330910508F0D4C0FC01EE0FFF1FEA5996
:102A1000FE4F0190F081E02D8D599E4FDC018C918D
:102A200090E01DC0332721303105E9F02115310533
:102A300079F022303105F9F02330310509F0B8C0C2
:102A4000ECE2F7E0E4918E2F90E0ECE2F7E007C0D3
:102A5000E0E8F7E0E4918E2F90E0E0E8F7E00097FF
:102A600009F4A6C0A2CFEAE6F7E0E4918E2F90E049
:102A7000EAE6F7E0F4CFEAE4F7E0E4918E2F90E0A5
:102A8000EAE4F7E0ECCF8330910508F091C0880FBD
:102A9000991FFC01E459FE4F0190F081E02D89E07F
:102AA00090E083CF82E190E0EAE1F7E07ECF809191
:102AB0002904882309F45ACF853009F457CF80912F
:102AC000E80083FD53CF8091E80082FD82CF8091A2
:102AD000E80080FF78CF9091F3008091F2002115FB
:102AE000310519F08830910550F041E0089709F060
:102AF00040E08091E8008E778093E80064CF4491B5
:102B00004093F1003196215031090196E8CF803889
:102B100009F04EC08091E800877F8093E8008091A3
:102B20002A048093F10092CE811142C010912D04AD
:102B30001230F0F58091E800877F8093E8001093D1
:102B40002A040E94B304112311F084E005C080918F
:102B5000E30087FDFACF81E08093290442E061EC35
:102B600081E00E94D20442E261EC84E00E94D2043F
:102B700042E261EC82E00E94D20442E260EC83E037
:102B80000E94D2048091290413C080912D048130C9
:102B900079F481E0933009F080E08093280410926A
:102BA000E9008091E800877F8093E8000E94B304E9
:102BB0008091E80083FF0AC08091E800877F8093BE
:102BC000E8008091EB0080628093EB00AA96E3E03E
:102BD0000C94CC33EBE2F3E0128E138E8FEA90E08C
:102BE0009183808325E0248F88E893E19383828317
:102BF0008AE090E09583848344E150E057834683E4
:102C000048E050E051874087938782876EE170E00B
:102C1000758764879787868780E590E0918B808BA6
:102C2000538B428B48E250E0558B448B42E350E09B
:102C3000578B468B46E950E0518F408F158E178E8B
:102C4000168E91A380A322A30E94830E0E941513C7
:102C50001092090310920803E9E0F3E08081846098
:102C6000808380910803909109030E940A0F0E94BB
:102C70004A0D0895A4E1B0E0E0E4F6E10C94A63337
:102C8000A0900D01B0900E0181E090E090930E01B4
:102C900080930D0183EEC82E83E0D82E712C76012F
:102CA00000E014C0F40125913491412F602F872D4D
:102CB0000E94CB0E82E0880E911C1F5F1A3091F7A4
:102CC00094E1E90EF11C0F5F043019F0470110E0A8
:102CD000E9CF7394E0E5CE0ED11CF5E07F12DFCF93
:102CE0000E94EA15CE0101967C01FC0111921A9511
:102CF000E9F70BED11E04AE050E0B801C7010E948E
:102D00004634065F1F4F0B32F2E01F07A1F77E012A
:102D10008BE0E80EF11C8AE0F70111928A95E9F741
:102D20008FEF9FEF988B8F8787E08C8B4AE050E086
:102D3000B801C7010E944634065F1F4F0B37F2E00F
:102D40001F07A1F7B0920E01A0920D016496EDE06D
:102D50000C94C23380E00E94F10E60E086E290E0C5
:102D60000E9422340E943A160E94BB0E81E00E940B
:102D7000F10E0895CF92DF92EF92FF928FEF9FEFC7
:102D80004430510508F46AC0FB01C080D180E28064
:102D9000F3800E94151380910803C0FA80F9B701EF
:102DA000A601769567955795479540FB81F9B70140
:102DB000A60122E076956795579547952A95D1F714
:102DC00040FB82F9B701A60133E0769567955795E8
:102DD00047953A95D1F740FB83F9B701A601E4E0A6
:102DE0007695679557954795EA95D1F740FB84F915
:102DF000B701A601F5E07695679557954795FA9541
:102E0000D1F740FB85F9B701A601A6E07695679555
:102E100057954795AA95D1F740FB86F9B701A601CA
:102E2000B7E07695679557954795BA95D1F740FBEA
:102E300087F98093080380910903D0FA80F9D1FAC9
:102E4000CC24C0F8C0FA81F980930903809108036B
:102E5000909109030E940A0F90E080E0FF90EF90AC
:102E6000DF90CF9008950E9415132FEF84E39CE02C
:102E7000215080409040E1F700C0000088E19AE0D6
:102E80000FB6F894A895809360000FBE90936000F1
:102E9000FFCF882341F0809590913404892380935B
:102EA00034040E9408120895882339F09091340464
:102EB000982B909334040E9408120895882321F0DF
:102EC0000E945D0B0E9408120895882339F09091AA
:102ED0000A03982B90930A030E94081208958823EE
:102EE00009F455C0823879F40E94250681FF4FC04D
:102EF00089E30E94920B0E94081289E30E94850BCD
:102F00000E9408120895833859F40E94250680FF14
:102F10003EC083E50E94920B0E94081283E5EECF2B
:102F2000843859F40E94250682FF31C087E40E944C
:102F3000920B0E94081287E4E1CF9CEF980F913A20
:102F4000E8F290E2980F983050F4877091E001C059
:102F5000990F8A95EAF7892F0E945D0BD1CF9BE5E7
:102F6000980F933028F490E080E00E940F060895B7
:102F700098E5980F973128F490E080E00E94F905D9
:102F80000895803F20F00E94D1070E94AA0708956B
:102F9000FF920F931F93CF93DF93F82E00910C04B1
:102FA00010910D040115110509F449C010920B048C
:102FB00010920A041092070410920804D801169681
:102FC000CD91DC919E013A9521153F4108F4D07EC8
:102FD000D1E0C11101C0D0E0D8011996ED91FC916A
:102FE0001A97309731F01B966D917C9180E009958E
:102FF000D823DD2339F08CEF8C0F813A30F58C2FFC
:103000000E94850BFF2099F0E0910C04F0910D04D3
:10301000808584FD0CC080910904882341F0808163
:1030200091819C0121503109203B3D45A0F00E9437
:10303000081210920D0410920C0410920904C80199
:10304000CDB7DEB7E5E00C94CA330E9408128C2F8E
:103050000E946F17D7CF0E943206E9CFCF93DF933C
:10306000EC010E946F17CE010E945B0C9E01205E56
:1030700031092830310510F0CD2B29F40E945E175C
:10308000DF91CF9108950E944917FACFCF93C82FAF
:103090008823C9F08238C9F40E94250681FD13C037
:1030A00089E30E94920B0E9408122FEF87EE93E0B3
:1030B000215080409040E1F700C0000089E30E9469
:1030C000850B0E940812CF9108958338A1F40E94C5
:1030D000250680FDF8CF83E50E94920B0E9408121E
:1030E0002FEF81EE94E0215080409040E1F700C046
:1030F000000083E5E4CF8438A1F40E94250682FD18
:10310000E2CF87E40E94920B0E9408122FEF81EE1B
:1031100094E0215080409040E1F700C0000087E437
:10312000CECF8CEF8C0F813A68F4E6E7F1E0819125
:10313000C817E1F121E0EC37F207C9F78C2F0E94A4
:10314000920BBFCF80E28C0F883068F4C77021E00B
:1031500030E001C0220FCA95EAF780910A03822B62
:1031600080930A03AECFEBE5EC0FE33040F4F0E0E0
:10317000EC5DFE4F808190E00E940F06A4CFE8E551
:10318000EC0FE73150F4F0E0EE0FFF1FE95DFE4F6A
:10319000808191810E94F90596CFC03F08F493CFBA
:1031A0008C2F0E94EC080E94AA078DCF8C2F0E94C2
:1031B000850B0E940812C2CF1F93CF93DF93182F65
:1031C000C0914B03D0914C03893321F0C091490346
:1031D000D0914A03812F0E944618209739F4812FFD
:1031E0000E946F17DF91CF911F9108958FE99FE0A3
:1031F0000197F1F700C000002197EFCF0F931F93C5
:10320000CF93DF93C62FD42F022FFC018281882316
:10321000A9F0609337040E94ED05909336048093E3
:103220003504C77081E001C0880FCA95EAF70E9493
:103230006517DF91CF911F910F9108958091370409
:10324000681332C080913504909136040E94D205F3
:103250008639910548F510E21D0FCD17B9F080E2CF
:103260008C0F883040F4C77081E001C0880FCA9588
:10327000EAF70E945E17183048F481E09D2F97709E
:1032800001C0880F9A95EAF70E946517802F0E9467
:10329000DC18183070F6D77081E001C0880FDA951D
:1032A000EAF70E945E17C5CFC77081E001C0880FA2
:1032B000CA95EAF7F6CFB0E0A0E0E1E6F9E10C94B8
:1032C000A933EC018AE0A82E2881222309F48FC0BB
:1032D0002130C9F599818A81913021F422960E948A
:1032E000DC1805C0923029F422960E9446182196D7
:1032F000EBCF933021F422960E946F17F8CF9430D1
:1033000011F02196F4CF229630E020E0AE014F5F1D
:103310005F4F8053990B8A30910550F0215031094D
:1033200030F38FE99FE00197F1F700C00000F6CF7E
:10333000A29EB001A39E700D11249C01260F371F81
:103340008981EA01E3CFE22FF0E0EC54F84FB4902A
:10335000822F86958695869590E0FC01EC55F84F76
:10336000E4902770F12C022E02C0F594E7940A94A1
:10337000E2F731E0E322FF24FC01EC56F84FC49061
:10338000D12C022E02C0D594C7940A94E2F731E002
:10339000C322DD24FC01EC57F84F049110E002C079
:1033A000159507952A95E2F701701127E114F104AC
:1033B00019F081EE0E944618C114D10419F086EE6E
:1033C0000E9446188B2D0E94DC18C114D10419F0FC
:1033D00086EE0E946F17E114F10419F081EE0E944D
:1033E0006F170115110509F482CF8CE278CFCDB7A4
:1033F000DEB7EAE00C94C533CF93DF93EC010E9473
:103400005B0C9E01205E31092830310510F02097B9
:1034100041F40E9465178C2F0E944618DF91CF91CE
:1034200008950E945417F7CF662329F020913404A1
:103430002260209334049C013056211540E2340769
:1034400020F0305E2115304108F499270E94FC19C4
:103450000895B0E0A0E0EFE2FAE10C94AC337C0117
:103460008B01D42E8091190182FF8CC0C091510331
:10347000D0915203CE15DF0521F0E114F10409F0DB
:1034800081C0809119018B7F8093190181FD73C0E8
:1034900080914F0390915003A801481B590B81E084
:1034A00020911701309118014217530708F480E06A
:1034B0008170F82E80911901F0FA81F98093190139
:1034C000FE0183E0F695E7958A95E1F7EE71FF2717
:1034D000E55FFC4F20813181AE014F70552781E0BF
:1034E00090E002C0880F991F4A95E2F7FF2009F487
:1034F00044C0822B932B9183808380910A0381FFA8
:1035000008C08091190180618093190182E00E94B6
:103510005D0B80910A0385FF08C0809119018062CC
:103520008093190180E20E945D0B6F2DCE010E94F5
:10353000141ADD2031F08091460385FF02C086FF1A
:103540003BC08091490390914A030E940E0D8091E7
:103550005103909152039C013056211540E23407EB
:1035600020F0305E2115304108F499270E942E1872
:103570000E945F121DC081E09BCF809590958223B1
:103580009323B9CFC701992797013056211540E2FF
:10359000340728F0305E2115304108F0C7010E9441
:1035A0002E1880915103909152038E159F0501F3BF
:1035B0001093500300934F03CDB7DEB7E7E00C94B0
:1035C000C83368EE7EEF90E080E00E94403460E017
:1035D00082E090E00E94223460E083E090E00E946C
:1035E00022341092E90160E084E090E00E942234ED
:1035F00064E082E290E00E94223460E085E090E0A6
:103600000E94223460E086E090E00E9422346FEF56
:1036100087E090E00E94223440E050E0BA0188E068
:1036200090E00E94343460E08DE090E00E9422340B
:1036300040E050E0BA0188E190E00E94343460E05C
:1036400087E190E00E94223440E050E0BA018CE132
:1036500090E00E94343470E060E080E290E00E94EC
:10366000403440E050E0BA0188E190E00E943434F8
:1036700080E00E94F10E0E94AA1640E050E0BA01DC
:103680008FE090E00E94343440E050E0BA0183E1E2
:1036900090E00E9434340895A7E0B0E0E2E5FBE159
:1036A0000C94A1337C01DC0113964D915C9114972D
:1036B00011966C9111978C910E94A3068111D4C030
:1036C00061E0C7010E94380E8C01F701528055203D
:1036D00011F40C94532382519F45409708F0C1C7C1
:1036E0008FEF93E00E940E348111AEC07EEED72E94
:1036F000D00E0BE712E0D11036C019821A821B825D
:103700001C8299249A9468012FEFC21AD20AC80128
:103710000E940E3489831A82882309F495C081306F
:1037200009F087C0580132E0A30EB11CC6010E9407
:103730000E34C82E8A83882309F486C0C5010E94EE
:103740000E34D82E8FEF8C0D8330D8F4580143E01F
:10375000A40EB11CDB82DD2021F0CE0101960E9477
:103760005B198501D0CF0115F4E01F0709F46CC087
:10377000C8010E940E34811101C0DA940F5F1F4FFF
:10378000BACF8BEF8C0D833070F5C8010396DB82C6
:103790005C01DD2031F3580154E0A50EB11C0E94FC
:1037A0000E348C838823E9F20B811C8101306FEF8A
:1037B000160710F0102F002776E0C71681F087E07B
:1037C000C81649F0C8010E946F2A80914903909160
:1037D0004A030E940E0DC8010E944A2AC2CFC801A6
:1037E0000E946F2ABECF94E0C912BBCF5801A4E05B
:1037F000AA0EB11CC80103960E940E34DD2021F1EF
:10380000882311F18150990B989E9001999E300D5B
:103810001124ED2DE150FF0BCF01820F931F019773
:1038200008F49FCFAFE9BFE01197F1F700C00000A7
:10383000F6CFCE0101960E945B19560192CF81E02E
:103840000E94ED120E94A3128091DD01877061F049
:10385000D70112968C91882339F08091090382FF59
:1038600003C082E00E94BC122796E2E10C94BD33B3
:1038700081E00E94AF12E6CF82E0E2CF82E0F9CF92
:1038800081E080930001E0CF8095482238C7552021
:1038900009F4BBC610937D0100937C010E94E105F1
:1038A00060930304709304048093050490930604CA
:1038B00010920B0410920A0422C782FB882780F919
:1038C00061C75520F9F081705DC70E946F170C9495
:1038D00079240497813A910548F48A2D0E94920B2D
:1038E000552009F439C60E940812AECF0E94081272
:1038F0008FE39CE90197F1F700C000008A2D0E9438
:103900004618EECF9D819F5F9D8311C7FC012081EA
:1039100031810217130709F018C6511018C610920A
:10392000090480E09BC68091190181608093190190
:1039300040C6809119018E7F809319010E945F1209
:1039400038C6809119018F7E013E110531F0053E88
:103950001105C9F4809119018F7D8093190180911F
:10396000190180FF35C6D70112968C9108321105D6
:1039700028F50E31110508F074C00430110580F5EA
:10398000811122C625C6C8019056811560E29607AE
:1039900020F0905E8115904110F78091190182FF0F
:1039A00017C68091480381FD13C621E032E040E054
:1039B000B60190E080E00E94291A0AC60933110579
:1039C00058F40D32110518F40B321105C9F6909117
:1039D000460392FDD5CF08C004361105C1F3D0CF00
:1039E0009091460394FDCCCF882309F49DC090911B
:1039F0000A038091E801282F292B322F3D7FB1F156
:103A000010925203109251033091460331FD2EC0A3
:103A1000F80143E0F695E7954A95E1F7EE71FF2747
:103A2000E55FFC4F98012F70332781E090E002C0E2
:103A3000880F991F2A95E2F7809590952081318112
:103A4000822393239183808360E0C8010E94141A2B
:103A50008091E8018D7F0E94490B82E00E94BC1298
:103A6000F3CE9091460393FD8BCFBECF38E0F701A4
:103A7000A1E0B2E001900D923A95E1F710920302B5
:103A80001092050210920402A0905103B0905203CC
:103A90000A151B0591F53091460335FF2EC0409164
:103AA000190141FB992490F841FF02C036FF25C05F
:103AB00040914F0350915003F601E41BF50BE6399A
:103AC000F105D8F491FF08C08091190180618093BD
:103AD000190182E00E945D0B80910A0385FF08C0F6
:103AE0008091190180628093190180E20E945D0B30
:103AF000692DC5010E94141AA7CE9091190121FBCE
:103B000091F9909319018D7F0E94490B10935203F4
:103B100000935103D0925003C0924F03809119013A
:103B200084608093190199CF970140E0B601C801E4
:103B30000E94291A89CE053F6CE5160709F460C07A
:103B400008F45AC027E245EE66EE063F8CE51807FA
:103B500009F457C5D70112963C91332309F445C6A1
:103B6000109237040330BDE51B0708F050C00A3F30
:103B7000ECE51E0730F4C80182509C45449708F0DC
:103B800051C00E945F0E9093090380930803023195
:103B90005CE5150709F46CC108F0BCC009307CE590
:103BA000170709F443C108F086C005309CE51907E2
:103BB00009F430C108F06DC00330BCE51B0709F4FF
:103BC00021C108F023C18091080381600230FCE527
:103BD0001F0709F49CC080910803909109030E947B
:103BE0000A0F0E94151330CE27E245EE65EE09C597
:103BF00026E241EE60EE05C527E245EE64EE01C522
:103C000026E241EE62EEFDC428E241E0EFCF053A44
:103C1000FDE51F0709F4B5CFB0F501364DE51407F2
:103C200009F4AFCF06319CE5190709F0CFC18091A7
:103C30000A03982F9A7A2091450320FF04C0482F49
:103C4000447409F090E021FF04C0482F417109F04D
:103C500090E022FF04C0482F487809F090E023FF4D
:103C600003C0827209F090E0332309F42BC181E094
:103C7000911101C080E080937E0189E2911185E37A
:103C80000E94920B30CEC8018D5A9D45039750F685
:103C900078CF80910803806207302CE51207B9F1D4
:103CA00080910803806108303CE5130780F1809122
:103CB000080380642CC00D304CE5140709F4C0C023
:103CC00090F4809108038E7F0B306CE51607F9F0B5
:103CD000809108038C600C307CE51707C0F0809160
:103CE00008038D7F14C00F308CE5180709F4B8C0A5
:103CF00008F4AAC00031ACE51A0709F4B5C08091F8
:103D000008038F7B0131BCE51B0709F064CF80936A
:103D1000080361CF0F3FECE51E0709F4B3C0A8F517
:103D20000A3F2CE5120709F479C0C0F404314CE5D0
:103D3000140709F4B5C008F4A1C005316CE51607F5
:103D400009F049CF8091080382FB992790F921E07F
:103D5000922790FB82F990FB83F9D9CF0C3F7CE549
:103D6000170709F475C008F45DC00D3F9CE51907FD
:103D700009F472C08091090383600E3FACE51A0715
:103D800009F029CF8093090326CF0136BDE51B0733
:103D900009F491C090F40130FDE51F0709F489C0D2
:103DA00008F474C060E002303DE5130709F013CF5A
:103DB0008EE090E00E9422340ECF0D3A4DE51407BC
:103DC000E9F060F490910803892F8E7F90FF816065
:103DD000053A6DE5160709F49ACFFDCE0E3A7DE55A
:103DE000170751F10F3A8DE5180709F0F4CE9091BD
:103DF0000903892F877F93FF8860C4CF80910903CF
:103E00008860C0CF80910803826081CF80910803D1
:103E100084607DCF80910803886079CF8091090309
:103E20008160B0CF809109038260ACCF0E941513EE
:103E30008091080380686BCF80910903877FA2CFB0
:103E4000809108038B7F63CF80910803877F5FCFCA
:103E5000809109038E7F96CF809109038D7F92CF49
:103E6000809108038F7E53CF809108038F7D4FCFC1
:103E70000E941513809108038F7749CF8091080322
:103E8000837F45CF809109038C7F7CCF809109038C
:103E9000982F909591708E7F892B90FB81F972CF2E
:103EA0000E94151390910803892F97FB87F980587A
:103EB0002ECF61E07DCF90910803892F8F7E94FFF4
:103EC000806125CF80917E01811104C089E20E942A
:103ED000850B09CD85E3FBCF073C5CE5150709F4AD
:103EE00068C008F461C044ED50E167EC70E14FC078
:103EF0000D3C7CE5170709F466C0B0F445EF50E1CE
:103F000067E071E10B3CACE51A0709F440C04AEBED
:103F100050E16DEA70E10C3CBCE51B07C0F147E0E5
:103F200051E165EF70E133C0063DECE51E0708F492
:103F30008BCC0D35100709F487CC79C4809124020D
:103F400080FF19C08E7F80932402609124027091BB
:103F5000250280912602909127020E94E80F2FEF00
:103F600030E742E0215030404040E1F700C000001F
:103F70000E94180D69CC81608093240261E08695CF
:103F80000E94191161CC47E351E161E471E10E94A3
:103F900095075ACC41E451E167E371E1F8CF41EE76
:103FA00050E16BEE70E1F3CF4BEE50E161EE70E16A
:103FB000EECF47EC50E164ED70E1E9CF4DEA50E11E
:103FC0006AEB70E1E4CF61E081E0DACF0A355DE5CC
:103FD000150771F158F401157CE5170791F00E3DB6
:103FE0001C4509F024C40E94E11A09C00C359DE566
:103FF0001907A1F0F8F0073A1D4509F018C40E940E
:1040000033170E941513EFEFF4E32CE0E150F0407A
:104010002040E1F700C000000E94C1058091090323
:1040200082FB882780F991E089270E94D812FFC37C
:1040300081E0FBCF80E0F9CF82810081118188236C
:1040400069F0C8010E94BC0DD82E682FC8010E94DB
:10405000090CB8018D2D0E949F0DEFC3C8010E946D
:10406000D50BD82EF6CF202F2F70B22E802F807F29
:1040700019F0B29490EFB922DD20B9F0BB2069F0BD
:1040800080E2810F883010F0111109C080910A037D
:10409000B82AB0920A030E940812812F5FC0809153
:1040A0003404B82AB0923404F6CF812F0E946F17DF
:1040B000BB2009F455C080E2810F883010F0111147
:1040C00004C08B2D0E945D0B06C0B0948091340417
:1040D000B822B09234040E94081242C0302F3F70C0
:1040E000B32E802F807F803219F0B29480EFB822F7
:1040F000112321F1113009F4B0C0DD2009F4B9C059
:10410000CC2009F481C020E0D7014C9111965C913C
:10411000119712966C91129713967C91139714969F
:104120008C910E94150E8091480381FDB6CFF70156
:10413000858180FFB2CF8F70858366C0809109032F
:1041400082FD42C0DD20D1F1BB2039F080910A030D
:10415000B82AB0920A030E94081280E00E94461812
:10416000692D6850770B6430710510F40E942506A4
:10417000812F902F0E94400C8111C1C110928101AA
:1041800010928001AA20A9F08091DD0180FD11C06C
:10419000F70112828595859585950E94ED12C701DC
:1041A0000E944C1B8091DD018595859585950E9427
:1041B000AF1260E0C7010E94380E56CB80E00E942B
:1041C0006F17BB2069F27DCFDD2011F1C11004C053
:1041D0008091E8018B2919C041E0C41206C080918A
:1041E000E8018B290E94490BBBCF809147038230A5
:1041F00078F3C812EDCF0E943E0B90917F018B2D7A
:10420000892B891380937F018B2D0E946517A8CF7E
:10421000C11003C00E943E0B17C08091470351E0BC
:10422000C51216C0823008F49BCF80910A038B21FF
:1042300009F496CF0E943E0B90917F018B2D8095C3
:104240008923891380937F018B2D0E945E1788CF6D
:10425000823000F3C812DECF83CF80914D03DD2082
:1042600021F08C1508F47CCFCFCFC81608F078CF9A
:10427000EBCFCC2049F380914B0390914C03193341
:1042800021F08091490390914A030E940E0D812FE5
:104290000E946F1765CF802F86958695837069F091
:1042A000813009F05DCF812F902F9370D11002C023
:1042B00090E080E00E94F90553CF812F902F9370FA
:1042C000D11002C090E080E00E940F0649CF812FFC
:1042D000DD2029F00E94EC080E94AA0741CF0E942D
:1042E000D107FACF802F837091F5D11039CF412FAC
:1042F000429546954770440F440F812F8F70042ECE
:1043000001C0880F0A94EAF7212F207114FF07C01B
:104310002FE030E001C0220F4A95EAF72095302FB8
:10432000369536953370323069F050F44091E9019A
:10433000313029F0822B84230E94101311CF842B5B
:10434000822BFACF282B8091E9018227F5CF869521
:10435000DD2011F0802F8170882309F401CF412FD7
:10436000429546954770440F440F812F8F70042E5D
:1043700001C0880F0A94EAF7212F207114FF07C0AB
:104380002FE030E001C0220F4A95EAF72095302F48
:10439000369536953370323069F050F440913304DD
:1043A000313029F0822B84230E949E12D9CE842B97
:1043B000822BFACF282B809133048227F5CFF02F60
:1043C000FF70BF2EDD2029F08F2F0E94ED12812F6C
:1043D0001CCF812F0E945E178B2D0E94AF12C0CE82
:1043E000123F89F160F4103FB9F0113F81F0DD20F8
:1043F00009F480C0C11051CE802F8F7128C0133FA7
:1044000049F1143FA1F78091090382FD2FC0802F4D
:104410008F71DD2011F31BC080914D03DD2079F0F9
:10442000C81608F09DCE202F2F7181E090E001C0CA
:10443000880F2A95EAF7909133048927B5CF8C1518
:1044400008F48ECEF0CF802F8F71D110C6CF0E948E
:10445000ED1286CE80E0DD2009F4A6CF81E0902F1A
:104460009F7101C0880F9A95EAF79ECF809147030C
:10447000823040F1DD20D1F09091DD0197709430D1
:1044800041F40E94640B802F8F710E94AF12A12C07
:1044900067CEC816E0F7202F2F71B22E822F0E9410
:1044A000ED1263E08B2D0E94F912F1CFC81630F0A7
:1044B0000E94640B64E0802F8F71F5CF81E00E9431
:1044C000BC12E5CFDD2059F0302F3F71B32E832F82
:1044D0000E94ED1263E08B2D0E94F91241CE81E023
:1044E0000E94BC1241E04C1508F03ACE82E00E94D6
:1044F000BC1236CEC110BFCE802F8F716ECFDD20A3
:1045000019F0C1103BCE3ECEC11038CE20E0D7010D
:104510004C9111965C91119712966C91129713968B
:104520007C91139714968C910E94150E80914803EC
:1045300083FF24CE8091800190918101029709F040
:104540001DCE812F0E94DC1819CE552029F0DC01E8
:1045500018968C9185FFE5C98091460380FF38C08D
:104560000E94ED056C01F7018281882309F4E9C9F5
:104570008091190182FF08C021E032E040E0B601DD
:1045800090E080E00E94291A0B31FCE51F0709F436
:10459000CAC90C312CE5120709F4CBC99091190155
:1045A000892F8E7F90FF81600A313CE5130709F463
:1045B000C3C9C8019056811540E2940728F0905E67
:1045C0008115904108F0CBC910925203109251030B
:1045D000033FFCE51F0709F40BCB08F0ACCA083D0C
:1045E0003CE5130709F400CB093D4CE5140709F439
:1045F0000BCB073D5CE5150709F0ACCA26E241EE9E
:1046000061EEC7010E94FE181FC980917C01909144
:104610007D010817190781F410927D0110927C0129
:1046200010920304109204041092050410920604E0
:1046300010920B0410920A0480910C0490910D04C6
:10464000009709F489CFA8E08A16910408F05EC9A2
:10465000642D0E94830681117FCF81E00E94C817DC
:104660007BCF0031BFE51B0709F4E9C80131EFE555
:104670001E0709F401C90F35EDE51E0709F400C94D
:104680000036FDE51F0749F00E352DE51207A1F4B0
:1046900080910001882309F4F3C81092000180E0A2
:1046A0000E94C817D1C88031FFE59F0709F4E0C810
:1046B00081319F4509F4E2C880910001882309F403
:1046C0004BCF480130EE831A91084090E801809169
:1046D0007F01482A80910A03482A48E08416910401
:1046E00008F0D5C898012770332781E090E001C019
:1046F000880F2A95EAF7552009F4C6C8482AD70139
:104700008D919C910E94D50B21E030E0190102C0EF
:10471000220C331C8A95E2F7E0910C04F0910D0411
:10472000FF83EE8360907C0170907D011D822D815E
:10473000E22FF0E0EE0FFF1FE658FD4FC080D18062
:10474000C114D10409F478CF411005C0D6011296E6
:104750008C918111D7C8F601838190E08221932149
:10476000892B09F4CFC88085982F977009F487E0CA
:10477000F8E08F16910408F0A4C8552009F49DC8EC
:1047800086958170882309F4BDC8D601AD90BC9090
:104790000A151B0519F4552009F4B4C8EE81FF81F0
:1047A000CE16DF0609F4AEC8D6011D96ED91FC9138
:1047B000309721F08081882309F4A4C8642DC601B4
:1047C0000E948306882309F49DC80A151B0509F079
:1047D00069C00115110509F46AC051106AC0A61418
:1047E000B70409F08FC8512C64C006314CE514079A
:1047F00009F41DCA80910A038272093CACE51A07CC
:1048000009F4DCCB08F074CB053CECE51E0709F499
:10481000C6CB08F061CB033C2CE5120709F4B3CBFF
:1048200008F0B8CB023C4CE5140709F487CBF7013C
:1048300086819781009709F4FFCB0E94B009182F59
:10484000092FF701D280C580C2943FE0C322809136
:10485000DD018770C1F0AD2CDD20B1F0892F807FA4
:10486000803421F080E2810F883068F08091090364
:1048700082FF09C082E00E94BC128091DD01877036
:10488000AA24A3948111A12C902E92942FE092221D
:10489000FBE0F91508F464CCE92DF0E0E659FB4C97
:1048A0000C949433A114B10409F099CF512CB12C7C
:1048B000A12C80E00E94C817D0920D04C0920C0475
:1048C00081E080930904D60115968C9180930704AA
:1048D00051100FC0AB2869F0F601808191819C01D5
:1048E00024503109213A310510F00C94651C0E94C6
:1048F000850BD6011696AD90BC90C5019A95811591
:104900009F4110F4E0EEBE2277247394C501019715
:10491000803B9D4508F0712CD6011996ED91FC91D4
:104920001A97309731F01B966D917C9181E0099533
:104930007822772081F0F601868197810E945B0CB6
:1049400080930804C501F8E08F16910410F00C94D0
:10495000691C0E9432060E9408120C94701CEF928F
:10496000FF920F931F93CF93DF9380919601807FE7
:1049700009F04CC080919301882309F447C0C0918D
:10498000DA01E0909901D0919101F09092010091AB
:10499000940110919501EC16C9F1A8016F2D8D2F8E
:1049A0000E94A3062C2F30E0811135C0F90183E06D
:1049B000EE0FFF1F8A95E1F7DF01A656BE4F119655
:1049C0008C9111978F1127C08C918D1324C0129652
:1049D0008C91129781111FC013968D919C91801B11
:1049E000910B86399105B8F4809196018F708061A2
:1049F00080939601E156FE4F80818F7080618083A5
:104A000081E991E00E944C1B0E94CB0BCDB7DEB731
:104A1000E6E00C94C9332F5F3F4FC22FC770BBCF66
:104A2000A5E1B0E0E6E1F5E20C94A3338C0185E06A
:104A3000F801DE01519601900D928A95E1F7D801B7
:104A40006C9011967C9011971296EC901297139699
:104A5000CD90DC9060E081E991E00E94380E81E920
:104A6000A82E81E0B82E5090910140909201809044
:104A7000940190909501A401642D852D0E94A306B8
:104A800081115CC1F0909301960128193909FF202A
:104A900009F417C180919601982F907F263931052E
:104AA00008F0D2C0F8012181911181C0FE2C24119F
:104AB0001FC0908195111CC04091970150919801A1
:104AC000268137814217530799F4E11011C08F7086
:104AD000806180939601C5010E944C1B80919601D4
:104AE000D80115968C938F2D6596E0E10C94BF3319
:104AF000A601672D862D0E94A306D82E81E08E2563
:104B0000D11080E080FF18C04E2D672D862D0E94A9
:104B1000AB0B882389F08091480380FF0DC081E9A9
:104B200091E00E944C1B88E0E1E9F1E0DF011D9279
:104B30008A95E9F7F12CD7CF81E08E25D11080E05E
:104B4000B82FB170DB2E80FF29C04E2D672D862D2A
:104B50000E94AB0BC82E811121C0698A7A8A89898B
:104B60009A890E94EB0D292F22952F70223050F048
:104B7000243078F49F7051F0F8019581907F31F4E2
:104B8000FC2CB1CF9F7011F08823D1F3805E883068
:104B9000B8F3C8010E944C1BCD2CF2CFEE2009F4D3
:104BA000A2CF80919601816080939601C3CF24119A
:104BB0001BC09081951118C04091970150919801A8
:104BC000268137814217530779F4E1100DC08583A0
:104BD000C8010E944C1B88E0F801A1E9B1E00190F6
:104BE0000D928A95E1F77FCFC8010E94F80D8823C6
:104BF00039F1EE2029F1809196018032A0F02091C8
:104C00009101309192013A8729871B86DD86CC86F7
:104C10008E878091970190919801988B8F87CE0114
:104C200009960E944C1B88E0F801A1E9B1E00190CF
:104C30000D928A95E1F70E94AF24FF24F39453CF9D
:104C4000C8010E944C1BF9CF992309F468CFF801E1
:104C50009181941118C09081951115C040919701D0
:104C600050919801268137814217530761F4E11072
:104C70000AC08583C8010E944C1B88E0D5011D92A3
:104C80008A95E9F730CFC8010E94F80D8823C1F258
:104C9000EE20B1F280919601803228F220919101AC
:104CA000309192013A8329831B82DD82CC828E83EC
:104CB000809197019091980198878F83CE010196FA
:104CC000B0CF26393105C8F6FE2CEE2009F4B8CF56
:104CD000F8018181841124C08081851121C0209137
:104CE0009701309198018681978128173907C1F47F
:104CF0008091480382FD6FCF9091960190FD6BCF1C
:104D0000907F09F468CF809196018583903F09F4E4
:104D10005FCF982F907F905F8F70892B858358CFBE
:104D2000C8010E94F80D81117ECF809196018160AB
:104D300080939601C8010E944C1BD5CEEE2009F449
:104D40007FCFC8010E94F80DF82E882309F478CF90
:104D500088E0F801A1E9B1E001900D928A95E1F7B0
:104D600080919101909192010E94EB0D0E94AF24DD
:104D7000BACEA0E1B0E0EFEBF6E20C94B1332987B4
:104D80003A874B875C876D877E878F87988BCE01AC
:104D900009960E94102581112FC088E0FE013996E6
:104DA000DE01119601900D928A95E1F74C855D85A3
:104DB0006A8589850E94A30681111EC0A091990170
:104DC000B0E0CD010196877099272091DA0128176C
:104DD0001906E1F093E0AA0FBB1F9A95E1F7A656DA
:104DE000BE4F98E0FE01319601900D929A95E1F741
:104DF000809399010E94CB0B8091DA0190919901E7
:104E0000891312C06096E2E00C94CD330E94151312
:104E1000109299011092DA0188E0E1E9F1E0DF01F6
:104E20001D928A95E9F7E8CFB8E08B9FC001112465
:104E300086569E4F0E941025882321F38091DA0127
:104E400090E00196877099278093DA01D5CFEF9291
:104E5000FF920F931F93CF93DF9380915603882384
:104E600061F0C09155038CE0F82E80915603C8176D
:104E700048F01092560310925503CDB7DEB7E6E026
:104E80000C94C933EE24E394EC0EE09255030C2FFE
:104E900010E0CF9DE0011124C95ADC4F4B815C81A9
:104EA000698188810E94A30681111DC08E819F8126
:104EB000892B21F488859985019651F428813981BF
:104EC0004A815B816C817D818E819F810E94B926A0
:104ED000F09EF001F19EF00D1124E95AFC4F14826E
:104EE000138210923404CE2DC0CF1092FA03109288
:104EF000F90310921A018091F8038093F7030E943E
:104F0000DC060E9427270895B0E0A0E0EAE8F7E277
:104F10000C94A233C091F70397E0892E01E010E0D2
:104F20002CE0322E3EEF932E442443948091F803DC
:104F30008C1309C00E9427270E94DC06CDB7DEB77C
:104F4000E1E10C94BE33D0E0FE01EE0FFF1FE15112
:104F5000FC4F80819181889ED001899EB00D1124E3
:104F6000A954BC4F14962C911497211158C05090FD
:104F70005603E7E5F3E030E020E0712C5D012515F4
:104F800008F04BC0E284F384D501CD90DC906FEF44
:104F90007FEF612C462D50E0DA01AA0FBB1FAC0D4C
:104FA000BD1D0D90BC91A02D109731F0EA16FB06A7
:104FB00009F4BA016394EECF6F3F7607A9F1D801E7
:104FC00002C0AA0FBB1F6A95E2F77A2AB801062C25
:104FD00002C0660F771F0A94E2F7AB0141505109F6
:104FE00074161506F9F4329EF001339EF00D11246B
:104FF000E95AFC4F889ED001899EB00D1124A95416
:10500000BC4F12962D913C91139737832683908243
:1050100091829187808715964C920E94AE062196C8
:10502000C37084CF148213822F5F3F4F3C96A7CF6B
:10503000A9E1B0E0EEE1F8E20C94A133942F498BA2
:10504000252F5A8B6B8B7C8B8D8B4C895D89622FC6
:10505000892F0E94A306811109C08091800190913F
:105060008101019690938101809380018B89811148
:10507000109234041D861E861F86188A85E0FE0164
:105080007196DE01199601900D928A95E1F7809153
:10509000090382FF1EC080912D0390912E03892B5E
:1050A000C1F00E94ED052091DB013091DC01821BF3
:1050B000930B20912D0330912E038217930720F03C
:1050C0008091DD0182FFE2C10E946B0B81110E9481
:1050D0003E0B4C855D856A8589850E94A3068111FA
:1050E00011C061E0CE0109960E94380E6C018B85DB
:1050F00027EFC2162CE5D20681F4882321F181E046
:1051000080931A0129853A854B855C856D857E855E
:105110008F8598890E94B926C6C038EFC3163CE532
:10512000D30629F4882379F00E947527EBCF49EF45
:10513000C4164CE5D40639F4882329F080911A016D
:105140008111F2CFDCCF07EB13E0512CB12CA12C55
:1051500022242394312C2EEF422EF80140815181DC
:1051600088248A94982C20E0822F90E0FC01EE0F96
:10517000FF1FE40FF51F608171816115710531F02A
:10518000C616D70609F44C012F5FEECFF12CFFEFC6
:105190008F169F0609F449C0F8014481F0901A0166
:1051A0008F2D411180E0F82FF170FF2EF801E5807E
:1051B00086819B85992309F4F8C0FF2009F4F5C086
:1051C0006090410370904203E11013C0A101082CCC
:1051D00001C0440F0A94EAF7842B8683809153031D
:1051E000909154038615970520F4709254036092B1
:1051F0005303C10102C0880F991F2A95E2F7019756
:10520000F80126812817190681F48091F9039091FD
:10521000FA03009709F44BC00E94D205681679067C
:1052200008F045C021E0F80124835F28FFEFAF1AA2
:10523000BF0A095F1F4F28E0A216B10409F08DCF05
:105240008B85882309F40DC1552009F40AC10E94F9
:10525000ED059093FA038093F9038091560388300B
:1052600010F591E0980F9093560398E0FE0139965F
:10527000DE01119601900D929A95E1F73CE0839F33
:10528000C0011124895A9C4F28E0FE013196DC01AF
:1052900001900D922A95E1F72FEF3FEFFC01318746
:1052A0002087D386C2866996E2E10C94BD33809153
:1052B000F7035091F803982FF0E0E0E0851314C055
:1052C0009093F703E017F10709F4AFCF90E0FC01EA
:1052D000EE0FFF1FE151FC4FB182A0820196837057
:1052E00099278093F803A1CF682E712CF301EE0F5C
:1052F000FF1FE151FC4F2081318147E0429FD001E7
:10530000439FB00D1124A954BC4F6D917C9111970E
:10531000798F688F40E020E030E0E32FF0E0EE0F7F
:10532000FF1F688D798DE60FF71F808091808114B3
:105330009104E1F0F8010190F081E02DFF8BEE8BFC
:1053400020E005C08616970609F44F2D2F5FE22F47
:10535000F0E0EE0FFF1F6E897F89E60FF71F608177
:1053600071816115710571F73F5FD7CF4423D1F08B
:10537000F801231708F0FD0121E024830E171F0711
:1053800021F49093F703F42E50CF981305C0AE1775
:10539000BF0711F49F5F937093012F5F3F4F822FE0
:1053A00083708CCFF0E0E0E0F7CF90E0E11020C018
:1053B000B10102C0660F771F2A95E2F79B012150C9
:1053C00031098217930731F4442309F448C0C50119
:1053D0000E94AE06C101082C01C0880F0A94EAF7AA
:1053E000982F9095F801868189238683FE2C1DCF06
:1053F0009C01082C02C0359527950A94E2F7A90173
:1054000041705527BC016150710986239723892B70
:1054100011F5452B01F1F80182819381892BC1F0AF
:105420001B821C821D821E8249824A820E94ED05D7
:105430008160582F9D838C83F801828193818F83B3
:10544000988729813A814B816D817E810E94B9269E
:10545000F8011582BFCFF22FF170EF2EBBCFEF2CEA
:10546000B9CF9091F7038091F803981731F00E941B
:105470008427552009F446CE16CF0E942727109284
:10548000FA031092F9030E94DC06F3CF82E00E9437
:10549000BC121ACEA5E0B0E0E0E5FAE20C94B1331C
:1054A0009093050380930403811520E2920730F462
:1054B0000E942E182596E2E00C94CD3380EF89836C
:1054C0008A831B820E94ED058160782F9D838C83E7
:1054D00049815A816B818D810E941828EBCFA5E00C
:1054E000B0E0E5E7FAE20C94B133909305038093C2
:1054F0000403811520E2920730F40E94FC192596DE
:10550000E2E00C94CD3380EF89838A8381E08B8342
:105510000E94ED058160782F9D838C8349815A819B
:105520006B818D810E941828EACF90E080E00E9474
:105530001C34883E9E4F19F40E94460E089580E068
:1055400008951F920F920FB60F9211242F933F933D
:105550004F935F936F937F938F939F93AF93BF937B
:10556000CF93DF93EF93FF93D091E900DF708091A9
:10557000EC00C82FC17080FDC0E81092E900809156
:10558000F000877F8093F00078940E94211310929E
:10559000E9008091F00088608093F000CD2BCF70FF
:1055A000C093E900FF91EF91DF91CF91BF91AF914F
:1055B0009F918F917F916F915F914F913F912F912B
:1055C0000F900FBE0F901F9018951F920F920FB65D
:1055D0000F9211242F933F934F935F936F937F9379
:1055E0008F939F93AF93BF93EF93FF938091E100CD
:1055F00082FF09C08091E20082FF05C08091E10036
:105600008B7F8093E1008091DA0080FF24C080913D
:10561000D80080FF20C08091DA008E7F8093DA006E
:105620008091D90080FF9DC080E189BD82E189BD64
:1056300009B400FEFDCF81E08093290480911C0411
:10564000811109C00E9439040E9404058091E20082
:1056500084608093E2008091E10080FF17C0809118
:10566000E20080FF13C08091E2008E7F8093E20011
:105670008091E20080618093E2008091D800806296
:105680008093D80019BC85E0809329048091E100C3
:1056900084FF2BC08091E20084FF27C080E189BD98
:1056A00082E189BD89B5982F917080FFFBCF8091F1
:1056B000D8008F7D8093D8008091E1008F7E809309
:1056C000E1008091E2008F7E8093E2008091E20011
:1056D00081608093E20080912A04882309F447C006
:1056E00084E080932904809129048091E10083FF64
:1056F00027C08091E20083FF23C08091E100877F73
:105700008093E10082E08093290410922A04809122
:10571000E1008E7F8093E1008091E2008E7F809394
:10572000E2008091E20080618093E20042E060E06C
:1057300080E00E94D2048091F00088608093F000A5
:10574000FF91EF91BF91AF919F918F917F916F9159
:105750005F914F913F912F910F900FBE0F901F902F
:10576000189519BC1092290410921C0474CF8091D2
:10577000E30087FD93E090932904B5CF78941F92BE
:105780001FB61F9211248F939F93AF93BF93809165
:10579000150490911604A0911704B0911804019675
:1057A000A11DB11D8093150490931604A0931704B6
:1057B000B0931804BF91AF919F918F911F901FBE1E
:1057C0001F9018951F921FB61F9211248F939F93BD
:1057D000AF93BF9380911404811113C0809115047D
:1057E00090911604A0911704B09118044196A11D40
:1057F000B11D8093150490931604A0931704B093E1
:105800001804BF91AF919F918F911F901FBE1F9061
:105810001895CDB7DEB7E4970FB6F894DEBF0FBE8C
:10582000CDBF85B7806885BF85B7806885BF84B7E1
:10583000877F84BF0FB6F894A89580916000886137
:1058400080936000109260000FBE80E890E00FB679
:10585000F89480936100909361000FBE84E599E015
:1058600090937301809372010E94A40F0E94180FFD
:105870000E944A0D0E9439040E9404058091E200B2
:1058800084608093E2007894809129048823A1F0B9
:105890001091E9001F709091EC00892F817090FDAC
:1058A00080E8182B1092E9008091E80083FD0E94A7
:1058B00021131F701093E90082E084BD93E095BD31
:1058C0009AEF97BD80936E000E94460E811102C030
:1058D0000E94AA1680E90E94560980EF0E9456098C
:1058E00087E90E94560984E30E94560909E511E000
:1058F000D8018D918D018F3F11F00E945609B1E0C2
:1059000003361B07A9F788E0ECE0F2E0DF01282F5F
:105910001D922A95E9F7EDEEF1E0DF011D928A95DF
:10592000E9F70E94952A811102C00E94E11A82E0E3
:1059300090E00E940E348093F8010E945F0E9093D5
:105940000903809308030E945611EFE3FCE93197A5
:10595000F1F700C000000E94561180910C0280FFF8
:1059600008C06FEF7FEF90E080E00E9440340E941B
:10597000C10583E090E00E940E340E9410138091D4
:10598000F501811131C00E94952A811104C00E9445
:10599000E11A0E94461188E090E00E94163460935C
:1059A00024027093250280932602909327026E7F33
:1059B00071F40E94461188E090E00E9416346093D2
:1059C00024027093250280932602909327020E945E
:1059D0009B078091240280FF04C060E086950E94AE
:1059E000191181E08093F50181E091E09093110419
:1059F0008093100414E1412E12E0512E8E010F5FAE
:105A00001F4F80912904A0E1EA2EB2E1FB2E8530E0
:105A100009F48EC00E945611E9EF8E2EE1E09E2E11
:105A2000FCE06F2EF2E07F2ED301F4012191319141
:105A30008D919D9142E0E130F40709F483C028176D
:105A40003907A1F3312CD301ED90FD903D01F40114
:105A5000A190B1904F01AE14BF0459F1AE24BF2400
:105A6000212CCC24C394D12CC6018A219B21892BC3
:105A7000B1F028AA39AA21E0C6018E219F21892BE5
:105A800009F420E02AAB0E94ED058160782F9CABE1
:105A90008BAB48A959A96AA98CA90E9418282394FC
:105AA000CC0CDD1CFAE02F12DFCFF4013297F1822B
:105AB000E082339424E03212C6CF0E94E10564C034
:105AC00080912904843021F11092140428E130E0FF
:105AD00040E40FB6F894A895209360000FBE409361
