:100000000C94D1020C9409030C9409030C94090379
:100010000C9409030C9409030C9409030C94090330
:100020000C9409030C9409030C942F200C94EB1FDF
:100030000C942C210C9409030C9409030C940903CF
:100040000C9409030C9409030C9409030C94090300
:100050000C9409030C9408210C9409030C940903D3
:100060000C9409030C9409030C9409030C940903E0
:100070000C9409030C9409030C9409030C940903D0
:100080000C9409030C9409030C9409030C940903C0
:100090000C9409030C9409030C9409030C940903B0
:1000A0000C9409030C9409030C94090305010980BD
:1000B000A101850319012AB700150126B700950192
:1000C00075108100C0050C0901A101850419012AE0
:1000D000A002150126A002950175108100C00660DE
:1000E000FF0961A1010962150026FF00952075082E
:1000F00081020963150026FF00952075089102C052
:1001000005010906A101050719E029E715002501E8
:10011000950875018102950175088101050719008F
:1001200029FF150026FF00950675088100050819AE
:10013000012905950575019102950175039101C08D
:10014000FD377A585A000004E6D6B4460200210171
:1001500016000000742FE5A3E002E001195D003DE8
:10016000888986D3DC0AE842C324925842588FD843
:10017000E75CA0D2616E26E888019A676C7887BC3C
:100180008D3709EA0E1459A53C798586623CB13851
:100190007CF673B05A144E0CE6651E71EFCA117DE1
:1001A0009B232648F88F45912AEA9855B135CA16FF
:1001B00037FDEC10184363657201E6C5FE64078BDA
:1001C000DB06E9E67D50FDF6CFB3E8B646A7B9A950
:1001D000704477B811AE42E7BA1F4448388E523F98
:1001E000C676931B484D839B4A0F36384EF58F7960
:1001F00026AD88D755A29F9A4DD06900800DE86F33
:10020000A5D1C907709D40E20D164D18C38F8BB55F
:100210008F8A810CF8C4A86853A21921303F941D1D
:10022000B663ABEF4ED13FD9ADF23689C4A03F449F
:10023000CBD2889C65E467EED625C31030BF5867E3
:10024000CC5C9131997DC293AF3AF95550EA249B29
:100250001B7E23D2499DEF14E9C0B3F4C649D3876E
:100260009BAAF70310690A136CF9B518096AA3B1C0
:10027000E73DC6A66AD9B80000000000D7AF748F6A
:10028000A773B94C0001B502E1050000CDE19A9BCE
:10029000B1C467FB020000000004595A14001A00A0
:1002A0000800150017001C0018000C0012001300B5
:1002B00004621600070009430A000B000D430E00FC
:1002C0000F0034721D001B610664196805001100DF
:1002D00010783674377138000000000000002B00E1
:1002E000284100002C422A000000000029000000E4
:1002F000520000000000000024002500260000003D
:100300003900500051004F0000002D002100220054
:1003100023002E02E10000000000000000002D027A
:100320001E001F0020002E00000000000000000042
:100330000100000004512700370000001E021F02C8
:1003400020022102220223022402250200004C0086
:100350000000000000000000350200000000000066
:100360003402310200000000000000000000000024
:1003700000003300330231000000000000000000E4
:1003800004510000010000000000000026020000EF
:100390000000000000000000000000000000270234
:1003A0002F020000000001003502000001000000E3
:1003B000340230022F0000000000000000000000A6
:1003C0000000330033023000000000000000000095
:1003D000000000000000000000000000005C0000C1
:1003E000000000000000000000000000000000000D
:1003F00000000000000000000000000000000000FD
:10040000000000003A003B003C003D003E003F0081
:1004100040004100420043000000000000000000D6
:1004200001000000010000000000000009025B0064
:10043000030100A0FA0904000001030101000921E1
:100440001101000122400007058103080001090491
:100450000100020300000009211101000122220015
:10046000070582032000010705030320000109049A
:1004700002000103000000092111010001223200E5
:10048000070584032000011201000200000008EBB0
:1004900003F42F0100010203011C037600690061CF
:1004A000006C003A006600360034006300320062DF
:1004B000003300630000001E037600610075006CCD
:1004C000007400330035005F006B00610074006150
:1004D000006E006100000014036300680072006990
:1004E0000073005F00740061006E000000040309E7
:1004F00004000000000000000000000000000000F8
:1005000000000000000000000000000000000000EB
:1005100000000000007E0F00D4FFFFFFC7000000B6
:100520007800000000000000002A2B2800000000D6
:100530000000000000000000000000002900000092
:10054000002C1E3420212224342627252E362D3738
:1005500038271E1F202122232425263333362E3709
:10056000381F0405060708090A0B0C0D0E0F1011A1
:1005700012131415161718191A1B1C1D2F313023AE
:100580002D350405060708090A0B0C0D0E0F101176
:1005900012131415161718191A1B1C1D2F3130357C
:1005A0004C0011241FBECFEFDAE0DEBFCDBF04B692
:1005B00003FE18C08091C6039091C703A091C803A1
:1005C000B091C9038730904BA740B04B59F41092BB
:1005D000C6031092C7031092C8031092C903E0E04B
:1005E000F8E3099511E0A0E0B1E0ECEBFEE402C015
:1005F00005900D92A836B107D9F723E0A8E6B1E03F
:1006000001C01D92A63CB207E1F70E9453210C9451
:1006100038270C940000E8EDF0E080818E7F808325
:100620001092E2001092DA001092E100A0EEB0E029
:100630008C9181608C9380818F77808319BCA7ED2A
:10064000B0E08C918E7F8C9380818F7E808310921E
:10065000AB0308952091E4003091E50095E6A901EF
:100660002091EC00822F817020FF06C08091E8006D
:1006700080FF06C080E008952091E80022FD1AC0A6
:100680008091B803882389F0853089F08091EB0050
:1006900085FD0FC02091E4003091E500421753071B
:1006A000F9F29150E1F684E0089582E0089583E044
:1006B000089581E00895EF92FF920F931F93CF93D7
:1006C0007C018B010E942A03C82F811117C08091E1
:1006D000E80085FD0BC08091E8008E778093E800EC
:1006E0000E942A03882399F3C82F08C0F70181913B
:1006F0007F018093F1000150110949F78C2FCF91B0
:100700001F910F91FF90EF9008958091BA0387FF9A
:1007100013C08091E80082FF06C08091E8008B77CB
:100720008093E80004C08091B8038111F2CF08954E
:100730008091B8038823D9F38091E80080FFF8CF37
:100740008091E8008E77ECCF982F9093E900242FCA
:10075000762F50E0891731F07091EC002091ED0078
:100760005091F00021FD07C09F5F973071F7809393
:10077000E90081E008953091EB003E7F3093EB007B
:100780003091ED003D7F3093ED003091EB00316012
:100790003093EB007093EC002093ED005093F00049
:1007A0002091EE0027FDE0CF80E00895B0E0A0E0CA
:1007B000ECEDF3E00C949426C8EDD0E088818F7EB8
:1007C0008883E7EDF0E080818160808384E082BFF0
:1007D00081E08093AB0388818E7F888302EE10E0F6
:1007E000F80110821092DA0081EEC82ED12CF601A9
:1007F000108288818F778883888180688883888148
:100800008F7D888319BC1092B8031092B90310929F
:10081000B7031092B60390EEE92EF12CF701808118
:100820008B7F808388818160888342E060E080E004
:100830000E94A403F60180818E7F8083F80180816D
:1008400081608083808188608083F70180818E7FD2
:100850008083888180618883CDB7DEB7E8E00C941F
:10086000B026FC018091C0039091C10386179707C1
:10087000A0F06115710529F49091E8009E7790939E
:10088000E80090E06115710551F4911108C0809164
:10089000E80082FF34C080E00895BC01F2CF80916F
:1008A000B8038823C1F18530C1F18091E80083FD50
:1008B00030C08091E80082FDEACF8091E80080FF9F
:1008C000E1CF8091F3002091F200382F611571057E
:1008D00019F02830310558F091E02830310509F041
:1008E00090E02091E8002E772093E800CBCF819113
:1008F0008093F100615071092F5F3F4FE7CF8091E6
:10090000B803882341F0853041F08091E80083FFEF
:10091000BECF81E0089582E0089583E008950895B0
:1009200008958091AD0308959C014FB7F89480918C
:10093000A4039091A503A091A603B091A7034FBF74
:10094000821B930B08952FB7F8946091A4037091C4
:10095000A5038091A6039091A7032FBF08952FB7F9
:10096000F8948091A4039091A503A091A603B0915F
:10097000A7032FBF08952091A1033091A203281748
:10098000390771F09093A2038093A103E0919F0334
:10099000F091A003309721F00084F185E02D0995B6
:1009A000089520919D0330919E032817390771F017
:1009B00090939E0380939D03E0919F03F091A00389
:1009C000309721F00680F781E02D09950895E09198
:1009D0009F03F091A003309729F00190F081E02D62
:1009E0000995089580E00895CF93DF93EC0140913D
:1009F00092035091930360919403709195032FB7E4
:100A0000F8948091A4039091A503A091A603B091BE
:100A1000A7032FBF841B950BA60BB70B843F9140F8
:100A2000A105B10518F58091920390919303A091CF
:100A30009403B091950380938E0390938F03A093BA
:100A40009003B093910384EF91E0A0E0B0E0809335
:100A50008A0390938B03A0938C03B0938D03D09360
:100A60009A03C0939903DF91CF9108950E94A30444
:100A700060938E0370938F03809390039093910300
:100A800082E390E0A0E0B0E0E2CFFC018481862325
:100A900051F492819923B9F06923808583FF05C0C1
:100AA00081E061110FC080E00895892F8F709295C9
:100AB0009F70982B862F8F7062956F70682B81E0E6
:100AC0009613F1CF089581E0FDCFDC01609186039C
:100AD00080918703962F891301C00895292F30E054
:100AE000F901EE0FFF1FE258FC4F408151814A1778
:100AF0005B07A1F487E08A9FA0018B9F500D112412
:100B00004A5B5C4F81E0FA0184839613E6CF2F5F46
:100B10003F4F237033272093860308952F5F3F4F65
:100B2000922F9370D8CF1092E2021092E102E6E485
:100B3000F3E08581811102C014821682379683E02A
:100B4000EE37F807B1F7089580E00895F894E82F9C
:100B5000E295EF70F0E031A1282F2F7081E090E056
:100B600001C0880F2A95EAF7982F9095932391A3B7
:100B700092A1892B82A3789408959091EA0192FF23
:100B800006C0282F28712830F9F4877F846093FFEE
:100B900006C0282F28712831F1F4877E84612091C6
:100BA000EB0120FF06C0382F38713830D9F4877F29
:100BB000816021FF06C0282F28712831D1F4877E5B
:100BC000816194FD877E0895282F24712430F9F6E1
:100BD0008B7F8860DCCF282F2471243101F78B7E36
:100BE0008861DDCF382F3171313019F78E7F886001
:100BF000E0CF282F2171213121F78E7E8861E1CF4E
:100C0000CF93DF93EC0182389105B1F108F040C039
:100C10008133910509F49DC048F58932910509F4A5
:100C20008DC08A9709F49CC0C11522E5D20708F04F
:100C3000BDC0C11531E5D30708F025C1C83ED105B7
:100C400008F0A3C0C13ED10588F5C83AD10508F027
:100C50008EC0C53AD10508F0F6C0C130D10531F1DA
:100C6000209721F1C430D10508F545C085339105A1
:100C700009F45FC0C997C1F68091EA01837009F059
:100C800037C18091EB0183FF11C0C9E2D0E00EC0F3
:100C9000833E910599F170F4803E910501F1823E09
:100CA000910511F68091EA0182FD21C0CE01DF910C
:100CB000CF910895863E910561F1873E910571F1CE
:100CC000843E910509F0B0CF8091EB0181FFEECF1A
:100CD0008091EA01C7EED0E084FD0DC0E7CF80919E
:100CE000EA0180FD33C09091EB0190FFDFCFC3EEAE
:100CF000D0E084FFDBCFD0E0C0E0D8CF8091EA0124
:100D000082FDF3C09091EB0190FDF2C084FFCECF45
:100D1000F2CF8091EA0183FDDDCFC8CF8091EA0157
:100D200083FDE9C09091EB0191FFF0CFC4EED0E0DC
:100D3000BDCF8091EA0185FFB9CFA7CF8091EA01AD
:100D400085FDDCC08091EB0183FFB0CFC9E3D0E02B
:100D5000ADCF8091EA0186FFA9CFCAE2D0E0A6CF4D
:100D60008091EA0186FFA2CFC1E3D0E09FCFCF3BC5
:100D7000D10508F6C85AD0E0CC0FDD1FC45EDE4FA7
:100D80000990D881C02DD46491CFC11540E5D40716
:100D900008F064C0C11580E4D80708F05CC0CE013B
:100DA0009A9581159F4108F481CFA5CFC11536E5ED
:100DB000D30718F5C11545E5D40708F07DC0C11566
:100DC00084E5D80708F073C09C2F969596959E01F0
:100DD00023703327C115D34508F45AC0C1E0D0E0D1
:100DE00002C0CC0FDD1F2A95E2F730E2939FC001CD
:100DF0001124C82BD92BDA6859CFC1158AE5D80739
:100E000078F4C11529E5D20708F061C0C11538E5AD
:100E1000D30708F470CFDC2FCC27C06FD06A46CF41
:100E2000CE0190568115904208F065CF8D2F8F71BD
:100E30000E94BD0590E0982F882788279F719C010C
:100E40002C2BE90142C0C55AD0E0C75EDE4FC881F5
:100E5000D0E0D0642BCFDF70D06A28CF2C2F26951E
:100E60002695237080E2289F900111248C2F837097
:100E7000C1E0D0E002C0CC0FDD1F8A95E2F7C22BA3
:100E8000D32BDD6813CFDC2FCC27C16FD06A0ECFF8
:100E9000C1E0D0E002C0CC0FDD1F2A95E2F720E2CE
:100EA000929FC0011124C82BD92BDC68FFCEDC2F08
:100EB000CC27C46FD06AFACE8C2F0E94BD05C82FF4
:100EC000D0E0DC2FCC27CC27DF71D062EFCE8C2F87
:100ED0008F700E94BD0534E0D695C7953A95E1F72D
:100EE000CF709C2FEC01D069E1CEC2EED0E0DECE17
:100EF000C0EED0E0DBCEC6EED0E0D8CEC5E3D0E089
:100F0000D5CE8091DD01882331F01092DD01109261
:100F1000DC011092DB01089580959091DA0198230D
:100F20009093DA0108951092D1011092D00110929D
:100F3000CF010895ECE6F1E09191891303C0DF0140
:100F400011971C9291E0E237F907B1F70895ACE6EA
:100F5000B1E0EFEF90E02D91821751F0EF3F19F4DF
:100F6000211101C0E92F9F5F9630A9F7EF3F09F4E7
:100F700008950E2E000CFF0BE659FE4F8283089554
:100F80008091CE0190918D01981301C008958F5FDB
:100F90008770FACF292F943078F58A3068F590E081
:100FA0003AE0239F800D911D1124682F677023E084
:100FB000969587952A95E1F7FC01EE0FFF1FE80F44
:100FC000F91FEA58FE4F50E040E080E0219130E008
:100FD000062E02C0369527950A94E2F72170332732
:100FE000042E01C0220F0A94EAF7822B4F5F5F4F55
:100FF0004330510559F7089580E00895292F943022
:1010000098F58A3088F590E03AE0239F800D911D95
:101010001124282F277041E001C0440F2A95EAF7D8
:1010200023E0969587952A95E1F7FC01EE0FFF1FC7
:10103000E80FF91FEA58FE4F30E020E070E05191D0
:10104000DF011197CB01022E02C0969587950A9475
:10105000E2F7817081958527842385278C932F5F04
:101060003F4F2330310559F708959C013A952115DA
:101070003F4150F5FC01EE27F170BC01662772700C
:10108000AC01442754709C012227387094FF0EC095
:1010900080E1EF2B09F480E0672B09F08062452B9B
:1010A00009F08064232B89F08068089581E0EF2B9C
:1010B00009F480E0672B09F08260452B09F0846019
:1010C000232B19F08860089580E008958093A80389
:1010D0007093AA036093A9038091B8038430F9F454
:1010E0008093E9008FEF9091E800815095FD06C054
:1010F00095ED9A95F1F700008111F5CF8091E80008
:1011000085FF0DC050E040E063E070E088EA93E0C6
:101110000E945B038091E8008E778093E800089539
:10112000BC0184E00E9466080895BC0183E00E942F
:1011300066080895CF93DF93EC0181E08093E90086
:101140008FEF9091E800815095FD06C095ED9A953E
:10115000F1F700008111F5CF8091E80085FF14C000
:1011600050E040E068E070E0CE010E945B038091B7
:10117000E8008E778093E80088E0FE01AEEAB3E0F5
:1011800001900D928A95E1F7DF91CF91089581E06A
:101190008093E00080E28093D8001092C9008FE134
:1011A0009EE40197F1F700C0000087E090EBDC01BE
:1011B0008093C6039093C703A093C803B093C90359
:1011C00088E19CE00FB6F894A895809360000FBE6C
:1011D00090936000FFCFCF93DF93C7E5D2E060E04C
:1011E000CE010E94FC262196C11584E0D807B9F7EC
:1011F000DF91CF9108951F93CF93DF93122F853006
:10120000E0F46430D0F44A30C0F4C42FD0E0CC0F06
:10121000DD1F94E1699FC00DD11D112490E5899FC8
:10122000C00DD11D1124632FCE0187960E94FC268C
:10123000612FCE0188960E94FC26DF91CF911F91ED
:101240000895CF93C82F6FEF811167E983E290E093
:101250000E94FC266FEFC11167EF84E290E00E94CC
:10126000FC266FEFC11169E685E290E00E94FC2642
:10127000CF910895A4E1B0E0E0E4F9E00C948F266A
:10128000A0900D01B0900E0181E090E090930E01CE
:1012900080930D018CE9C82E82E0D82E712C760146
:1012A00000E014C0F40125913491412F602F872D67
:1012B0000E94FB0882E0880E911C1F5F1A3091F794
:1012C00094E1E90EF11C0F5F043019F0470110E0C2
:1012D000E9CF7394E0E5CE0ED11CF5E07F12DFCFAD
:1012E000CE0101967C01FC0111921A95E9F707EBFA
:1012F00011E04AE050E0B801C7010E942027065FD4
:101300001F4F0730F2E01F07A1F77E018BE0E80EC8
:10131000F11C8AE0F70111928A95E9F78FEF9FEFB0
:10132000988B8F8787E08C8B4AE050E0B801C7012B
:101330000E942027065F1F4F0735F2E01F07A1F725
:10134000B0920E01A0920D016496EDE00C94AB26D4
:1013500080E00E94210960E086E290E00E94FC2685
:101360000E943A090E94EB0881E00E942109089539
:101370000F931F93CF93DF93853030F5643020F5C2
:101380004A3010F5C42FD0E0CC0FDD1F24E1629F5E
:10139000C00DD11D112430E5839FC00DD11D112436
:1013A000CE0187960E94EE26082F10E0102F00270E
:1013B000CE0188960E94EE269801282BC901DF9164
:1013C000CF911F910F91089590E080E0F8CF462FC4
:1013D0002091DF023091E002232B99F4703F39F421
:1013E000603F79F48091DD029091DE0208958530AE
:1013F00040F4743030F46A3020F4672F0E94B8094A
:10140000089590E080E00895CF92DF92FF920F93CD
:101410001F93CF93DF936C010091C2038091DE0193
:10142000082BC7E0D0E010E0FC2EC8010C2E02C053
:10143000959587950A94E2F780FD0CC02197A0F757
:10144000F12C8F2DDF91CF911F910F91FF90DF90A5
:10145000CF900895B6018C2F0E94E7090E940006E4
:10146000019761F3EECFCF93DF93EC010E94040A62
:10147000BE010E94E7090E940006DF91CF91089506
:10148000FC0183819481892B29F0808191818923BA
:101490008F3FF1F480E008950E94000692959F70BE
:1014A000963089F058F4925F9F70923098F7803FA1
:1014B00019F030F4883E70F781E008959A5FF4CF18
:1014C000843F41F7F9CF883EB8F3813F19F7F4CF55
:1014D00086819781009701F7808191810E94330A6C
:1014E000DDCFA5E0B0E0E7E7FAE00C9499269C0197
:1014F000FC01868197810097E1F485E0DE01119679
:1015000001900D928A95E1F7F901228189819A81F2
:10151000222399F0662389F00E94040A182F682F6D
:1015200089819A810E94FE0769817A81812F0E94B8
:10153000E7092596E3E00C94B5260E94CA07182F08
:10154000F3CF83E290E00E94EE26873989F484E2AB
:1015500090E00E94EE26873F59F485E290E00E94D9
:10156000EE2691E0893609F090E0892F8170089588
:1015700080E0FCCFCF9384E090E00E94EE26C82F5D
:1015800082E290E00E94EE26982F8C2FCF91089552
:10159000AAE0B0E0EEECFAE00C94902605E612E04A
:1015A00083E5C82E82E0D82E97E0E92E92E0F92E4E
:1015B00027E0922E32E5A32E32E0B32E88248394C6
:1015C000D6010D931D936D014AE050E0B701CE01A5
:1015D00001960E94DE26F8013896DF01892D1D92C2
:1015E0008A95E9F789819A81D80111969C938E9307
:1015F0008F8112968C9312978D8113968C931397EB
:10160000888514968C931497898515968C931597D5
:101610008B819C8117969C938E93169718961C929B
:1016200018978A8587FF3CC01E961C921E921D97B4
:1016300080FF03C0D80118968C9281FF04C0F80186
:1016400090859260908782FF07C0D80118969C9180
:101650001897946018969C9383FF04C0F8019085B6
:101660009860908784FF07C0D80118969C911897BE
:10167000906118969C9385FF04C0F8018085806274
:101680008087015F1F4FFAE0EF0EF11C87E5E81637
:1016900082E0F80609F094CF2A96ECE00C94AC2690
:1016A000F801B686A586C4CFAAE0B0E0EAE5FBE083
:1016B0000C949426E2E0F2E080E5DF011D928A9529
:1016C000E9F7E6E4F3E088E3DF011D928A95E9F7A4
:1016D00082E0C82E82E0D82E7F0107EB11E0F701EF
:1016E000D182C0824AE050E0B801CE0101960E944A
:1016F000DE2688E0FE013196D60101900D928A9592
:10170000E1F789859A85D70113969C938E9312975A
:10171000BAE0CB0ED11CE7E0EE0EF11C065F1F4FC6
:101720000730F2E01F07D9F62A96E8E00C94B026BD
:101730008091DA019091E302892B80936A01809174
:10174000DD01882319F10E94AF042091DB01309163
:10175000DC01821B930B8838934110F00E948107B3
:1017600080916A019091DD01892B80936A0120E0CC
:101770008CE691E0FC013191CF0131112F5FF1E056
:1017800082379F07B9F721110E9481078091960344
:10179000809590916A01892390919703892B80937A
:1017A0006A0148E050E062ED71E08AE691E00E9453
:1017B000CA26892BA9F088E0EAE6F1E0A2EDB1E0C3
:1017C00001900D928A95E1F7E0919F03F091A003BB
:1017D000309731F00280F381E02D8AE691E009959F
:1017E000089590E080E00E94D10490E080E00E94A3
:1017F000BB041092E3020E94980B08958093C203E9
:101800000E94F10B08958091C203982F9670963034
:1018100021F488600E94FE0B0895877FFBCF21E0B2
:1018200030E001C0220F8A95EAF720958091C2032B
:1018300082230E94FE0B08959091D1018095892307
:101840008093D101282F277091F4282F082E000CA7
:10185000330B9217130659F09091EB0192FF07C0DA
:101860008595859585950E940F0C0E949307089594
:10187000CF93C091EB01C2FB992790F9981791F093
:1018800080FBC2F9C093EB016091EA0184E090E033
:101890000E94FC266C2F82E290E00E94FC2682E0EF
:1018A0000E941C0CCF91089521E030E001C0220F6E
:1018B0008A95EAF78091C203822B0E94FE0B08955D
:1018C0009091EB0192FF10C098E0899F9001112444
:1018D000622B6093D1010E94540C0E94AF0490933C
:1018E000D0018093CF0108950E94540C08958093F5
:1018F000DE010E94F10B08951092DA01ECE6F1E0AE
:1019000086E0DF011D928A95E9F70E94F10B0895A8
:10191000AAE2B0E0EEE8FCE00C9499268AEB93E0B2
:101920002091F100DC012D93CD01B3E0823C9B07B7
:10193000B9F78091BB03833009F472C0B8F48130E9
:1019400009F449C0823009F4B3C08091E80083FFF4
:1019500096C28091BA039091BB039A3008F08FC26F
:10196000E92FF0E0E65CF84D0C947D268A3009F40E
:101970008EC08B3009F471C0893039F78091BA0379
:10198000813219F78091BE039091BF03009711F047
:101990000297D9F68091E800877F8093E8008091D4
:1019A000E80082FF38C09091F3008091F200029726
:1019B00031F48091F100813011F0863021F4809172
:1019C000F1008093AD038091E8008B778093E8006D
:1019D0000E948503BACF8091BA03813A09F0B5CF4E
:1019E0008091E800877F8093E8008091BE0390910A
:1019F000BF03892B61F468E08EEA93E070E00E94F7
:101A000031048091E8008B778093E8009ECF60E0FE
:101A100090E080E0F3CF8091B8038111C0CF95CFE3
:101A20008091BA03813A09F090CF8091BE039091E2
:101A3000BF03892B09F089CF8091E800877F8093CD
:101A4000E8008091E80080FFFCCF80911001809336
:101A5000F1008091E8008E77B9CF8091BA0381328E
:101A600009F073CF8091BE039091BF03892B09F0D9
:101A70006CCF8091E800877F8093E8000E94850307
:101A80008091BC03809310010E947C0C5ECF8091FA
:101A9000BA03813209F059CF8091E800877F8093A3
:101AA000E8000E9485038091BD038093AC034DCF75
:101AB0008091BA03813A09F048CF8091E800877F8E
:101AC0008093E8008091E80080FFFCCF8091AC0318
:101AD000BECF803899F0823809F0D1C18091BE0321
:101AE0008F70873008F0CBC18093E9008091EB00C4
:101AF00085FB882780F91092E90006C08091B60323
:101B00009091B703911182609091E800977F909334
:101B1000E8008093F1001092F1008091E8008E7748
:101B2000AAC1882309F498C1823009F0A8C1809124
:101B3000BC0381119BC18091BE038F702FEF280FD2
:101B4000263008F09CC18093E9002091EB0020FF33
:101B50008DC1933031F48091EB0080628093EB0073
:101B600085C19091EB0090619093EB0021E030E013
:101B700001C0220F8A95EAF72093EA001092EA004A
:101B80008091EB008860EACF811179C11091BC038C
:101B90001F778091E3008078812B8093E300809110
:101BA000E800877F8093E8000E9485038091E80029
:101BB00080FFFCCF8091E30080688093E30082E0A7
:101BC000111183E08093B8035AC18058823008F025
:101BD00056C12091BC033091BD032C3DE3E03E078C
:101BE000A1F583E08A838AE289834FB7F894DE0106
:101BF000139620E03EE051E2E32FF0E050935700CF
:101C0000E49120FF03C0E295EF703F5FEF708E2FED
:101C100090E0EA30C0F0C7968D939D932F5F2431FA
:101C200059F74FBF8091E800877F8093E8006AE210
:101C300070E0CE0101960E9431048091E8008B771C
:101C40008093E8001CC1C096E7CF8091BE039091BD
:101C5000BF03432F55274330510509F44AC078F597
:101C60004130510509F485C08BE590E0ECE2F4E0E9
:101C70004230510509F003C12091E800277F2093ED
:101C8000E8002091C0033091C1038217930708F444
:101C90009C0140E02115310509F070C041116EC072
:101CA0008091E80082FDC9CF8091B803882329F292
:101CB000853019F28091E80083FFF2CFBECF413228
:101CC000510509F447C04232510509F0D8C08330AC
:101CD000910508F0D4C0FC01EE0FFF1FE55AFE4F3E
:101CE0000190F081E02D885A9E4FDC018C9190E0AC
:101CF0001DC0332721303105E9F02115310579F078
:101D000022303105F9F02330310509F0B8C0E9E996
:101D1000F4E0E4918E2F90E0E9E9F4E007C0EDEE05
:101D2000F4E0E4918E2F90E0EDEEF4E0009709F4FA
:101D3000A6C0A2CFE7EDF4E0E4918E2F90E0E7EDAE
:101D4000F4E0F4CFE7EBF4E0E4918E2F90E0E7EBE2
:101D5000F4E0ECCF8330910508F091C0880F991F13
:101D6000FC01EF59FE4F0190F081E02D89E090E0F9
:101D700083CF82E190E0E7E8F4E07ECF8091B80382
:101D8000882309F45ACF853009F457CF8091E800B1
:101D900083FD53CF8091E80082FD82CF8091E800DF
:101DA00080FF78CF9091F3008091F20021153105EA
:101DB00019F08830910550F041E0089709F040E0B3
:101DC0008091E8008E778093E80064CF449140933F
:101DD000F1003196215031090196E8CF803809F0A1
:101DE0004EC08091E800877F8093E8008091B9031E
:101DF0008093F10092CE811142C01091BC03123049
:101E0000F0F58091E800877F8093E8001093B90394
:101E10000E948503112311F084E005C08091E30046
:101E200087FDFACF81E08093B80342E061EC81E066
:101E30000E94A40342E261EC84E00E94A40342E217
:101E400061EC82E00E94A40342E260EC83E00E9425
:101E5000A4038091B80313C08091BC03813079F44E
:101E600081E0933009F080E08093B7031092E9009D
:101E70008091E800877F8093E8000E94850380912D
:101E8000E80083FF0AC08091E800877F8093E80024
:101E90008091EB0080628093EB00AA96E3E00C94C3
:101EA000B5260E947C0C2FEF84E39CE021508040FB
:101EB0009040E1F700C0000088E19CE00FB6F89484
:101EC000A895809360000FBE90936000FFCF882399
:101ED00041F080959091E30289238093E3020E9470
:101EE000980B0895882339F09091E302982B9093F2
:101EF000E3020E94980B0895882321F00E948C072A
:101F00000E94980B0895882339F09091DA01982B5C
:101F10009093DA010E94980B0895882309F44DC02C
:101F2000823879F40E94E70481FF47C089E30E9468
:101F3000A7070E94980B89E30E949A070E94980BBA
:101F40000895833859F40E94E70480FF36C083E582
:101F50000E94A7070E94980B83E5EECF843859F4BE
:101F60000E94E70482FF29C087E40E94A7070E941D
:101F7000980B87E4E1CF9CEF980F913AE8F290E25A
:101F8000980F983050F4877091E001C0990F8A95AE
:101F9000EAF7892F0E948C07D1CF9BE5980F9330E9
:101FA00028F490E080E00E94D1040895885A873197
:101FB00020F490E080E00E94BB040895FF920F930C
:101FC0001F93CF93DF93F82E00919B0310919C03F6
:101FD0000115110509F449C010929A031092990352
:101FE0001092960310929703D8011696CD91DC912A
:101FF0009E013A9521153F4108F4D07ED1E0C111F0
:1020000001C0D0E0D8011996ED91FC911A97309754
:1020100031F01B966D917C9180E00995D823DD23EA
:1020200039F08CEF8C0F813A30F58C2F0E949A0793
:10203000FF2099F0E0919B03F0919C03808584FD43
:102040000CC080919803882341F0808191819C018C
:1020500021503109203B3D45A0F00E94980B109281
:102060009C0310929B0310929803C801CDB7DEB772
:10207000E5E00C94B3260E94980B8C2F0E948D0FE4
:10208000D7CF0E94F404E9CFCF93C82F8823C9F09B
:102090008238C9F40E94E70481FD13C089E30E94DD
:1020A000A7070E94980B2FEF87EE93E02150804006
:1020B0009040E1F700C0000089E30E949A070E9467
:1020C000980BCF9108958338A1F40E94E70480FD16
:1020D000F8CF83E50E94A7070E94980B2FEF81EEAF
:1020E00094E0215080409040E1F700C0000083E57B
:1020F000E4CF8438A1F40E94E70482FDE2CF87E4B4
:102100000E94A7070E94980B2FEF81EE94E02150C8
:1021100080409040E1F700C0000087E4CECF8CEF14
:102120008C0F813A68F4ECE6F1E08191C817A1F1D7
:1021300021E0E237F207C9F78C2F0E94A707BFCF33
:1021400080E28C0F883068F4C77021E030E001C075
:10215000220FCA95EAF78091DA01822B8093DA0187
:10216000AECFEBE5EC0FE33040F4F0E0E75EFE4F7E
:10217000808190E00E94D104A4CFC85AC73108F0F2
:10218000A0CFEC2FF0E0EE0FFF1FE45EFE4F80814A
:1021900091810E94BB0495CF8C2F0E949A070E94C8
:1021A000980BCACF1F93CF93DF93182FD0E0C0E0D6
:1021B000893311F4C0E5D0E0812F0E9444102097AC
:1021C00039F4812F0E948D0FDF91CF911F910895D7
:1021D0008FE99FE00197F1F700C000002197EFCF52
:1021E0000F931F93CF93DF93C62FD42F022FFC01A1
:1021F00082818823A9F06093C5030E94AF04909365
:10220000C4038093C303C77081E001C0880FCA95DF
:10221000EAF70E94830FDF91CF911F910F910895EC
:102220008091C503681332C08091C3039091C403A9
:102230000E9494048F3A910548F510E21D0FCD17C6
:10224000B9F080E28C0F883040F4C77081E001C0A3
:10225000880FCA95EAF70E947C0F183048F481E095
:102260009D2F977001C0880F9A95EAF70E94830FFF
:10227000802F0E94D210183070F6D77081E001C014
:10228000880FDA95EAF70E947C0FC5CFC77081E00E
:1022900001C0880FCA95EAF7F6CFB0E0A0E0E3E509
:1022A000F1E10C949226EC018AE0A82E28812223E9
:1022B00009F48FC02130C9F599818A81913021F4C8
:1022C00022960E94D21005C0923029F422960E94D4
:1022D00044102196EBCF933021F422960E948D0F6B
:1022E000F8CF943011F02196F4CF229630E020E020
:1022F000AE014F5F5F4F8053990B8A30910550F0CC
:102300002150310930F38FE99FE00197F1F700C0C8
:102310000000F6CFA29EB001A39E700D11249C0177
:10232000260F371F8981EA01E3CFE22FF0E0EF5D4E
:10233000FA4FB490822F86958695869590E0FC01A1
:10234000EF5EFA4FE4902770F12C022E02C0F59454
:10235000E7940A94E2F731E0E322FF24FC01EF5F07
:10236000FA4FC490D12C022E02C0D594C7940A947F
:10237000E2F731E0C322DD24FC01EF50FB4F049172
:1023800010E002C0159507952A95E2F70170112714
:10239000E114F10419F081EE0E944410C114D1043B
:1023A00019F086EE0E9444108B2D0E94D210C114A9
:1023B000D10419F086EE0E948D0FE114F10419F09A
:1023C00081EE0E948D0F0115110509F482CF8CE278
:1023D00078CFCDB7DEB7EAE00C94AE26CF93DF938B
:1023E000EC010E9435089E01205E3109283031053C
:1023F00010F0209741F40E94830F8C2F0E9444100C
:10240000DF91CF9108950E94720FF7CFA8E0B0E05E
:10241000ECE0F2E10C9490268E010F5F1F4F88E0F4
:10242000F80111928A95E9F79AE4E92E91E0F92EE4
:102430006801AA24A394B12CF70181917F018F3FF9
:1024400009F446C0F894E82FE295EF70F0E021A17E
:102450008F70A50102C0440F551F8A95E2F7CA018B
:10246000922F982B91A392A18095892382A378948F
:1024700000C0EEE4F1E021E030E0912C812C4191AC
:102480004F3F09F467C0A42FA295AF70B0E09096BB
:102490008C9190E04F7002C0959587954A95E2F730
:1024A00080FD58C0C901882A992A220F331F51E0A4
:1024B000E835F50721F7F701319780818F3F11F05B
:1024C0000E94A60580EA8A95F1F7F6019182808242
:1024D000F2E0CF0ED11C4EE4E41641E0F40609F020
:1024E000ABCF48E050E0B80182EE91E00E94CA26EE
:1024F000892B99F188E0F801A2EEB1E001900D92EC
:102500008A95E1F781E08093E1010E94AF04909306
:10251000E0018093DF018091DF019091E0010E9452
:1025200094040597F0F048E050E062EE71E08AEF25
:1025300091E00E94CA26892BC9F088E0E2EEF1E022
:10254000AAEFB1E001900D928A95E1F781E0109237
:10255000E10108C090E080E0A6CF8091E101811107
:10256000DACF80E02896ECE00C94AC2680E0EFCF48
:1025700068EE7EEF90E080E00E941A2760E082E043
:1025800090E00E94FC2660E083E090E00E94FC2640
:102590001092DE0160E084E090E00E94FC2664E09E
:1025A00082E290E00E94FC2660E085E090E00E94DC
:1025B000FC2660E086E090E00E94FC266FEF87E05A
:1025C00090E00E94FC2640E050E0BA0188E090E0F4
:1025D0000E940E2760E08DE090E00E94FC2640E023
:1025E00050E0BA0188E190E00E940E2760E087E1A8
:1025F00090E00E94FC2640E050E0BA018CE190E0BF
:102600000E940E2770E060E080E290E00E941A27AE
:1026100040E050E0BA0188E190E00E940E2780E09F
:102620000E9421090E94A80940E050E0BA018FE011
:1026300090E00E940E2740E050E0BA0183E190E074
:102640000E940E270895A7E0B0E0E9E2F3E10C94C0
:102650008A267C01DC0113968D919C911497892B1D
:1026600039F08C9111969C9189238F3F09F0B7C561
:102670002796E2E10C94A626C80182519F45409717
:1026800008F08BC58FEF93E00E94EE268111A8C061
:102690006EEED62ED00E07E512E0D11036C01982AC
:1026A0001A821B821C8299249A946801EFEFCE1A39
:1026B000DE0AC8010E94EE2689831A82882309F463
:1026C0008FC0813009F081C05801F2E0AF0EB11C1B
:1026D000C6010E94EE26C82E8A83882309F480C092
:1026E000C5010E94EE26D82E8FEF8C0D8330D8F4D2
:1026F000580123E0A20EB11CDB82DD2021F0CE01C7
:1027000001960E944D118501D0CF0115B4E01B0741
:1027100009F466C0C8010E94EE26811101C0DA9456
:102720000F5F1F4FBACF8BEF8C0D833040F5C80180
:102730000396DB825C01DD2031F3580134E0A30E07
:10274000B11C0E94EE268C838823E9F20B811C8148
:1027500001304FEF140710F0102F002756E0C51678
:1027600051F087E0C81619F0C8010E94C51FC801C2
:102770000E948D1FC8CFC8010E94C51FC4CF94E01E
:10278000C912C1CF5801A4E0AA0EB11CC80103961A
:102790000E94EE26DD2021F1882311F18150990B52
:1027A000989E9001999E300D1124ED2DE150FF0B64
:1027B000CF01820F931F019708F4A5CFAFE9BFE0C7
:1027C0001197F1F700C00000F6CFCE0101960E94EC
:1027D0004D11560198CF81E00E94540C0E94030CC9
:1027E0008091D101877009F443CFD70112968C9163
:1027F000882309F43DCF8091EB0182FF39CF82E03D
:102800000E941C0C35CF81E00E940F0CE7CF82E0C4
:10281000E3CF82E0F9CF81E080930001E1CF8095A2
:10282000482214C5552009F43DC410937301009348
:1028300072010E94A30460939203709393038093A8
:1028400094039093950310929A0310929903FEC4F7
:1028500082FB882780F93DC55520F1F0817039C58C
:102860000E948D0F98C50497813A910548F48A2DEE
:102870000E94A707552009F4FCC30E94980BB0CF13
:102880000E94980B8FE39CE90197F1F700C00000CC
:102890008A2D0E944410EECF9D819F5F9D83EEC4E0
:1028A000FC01208131810217130709F0DBC35110AD
:1028B000DBC31092980380E00E94DE0FDAC3053F6D
:1028C0004CE51407C9F0A0F027E245EE66EE063F9E
:1028D0008CE5180709F010C4C7010E94F01080CFE2
:1028E00027E245EE65EEF8CF26E241EE60EEF4CF4A
:1028F00027E245EE64EEF0CF26E241EE62EEECCF49
:1029000028E241E0EFCF053AFDE51F0709F40BC4CB
:10291000C0F401363DE5130709F405C406314CE562
:10292000140709F06CC58091DA018A7A91E009F404
:1029300090E090937401811123C189E20E94A7075E
:102940009CCFC8018D5A9D45039740F7ECC38091F9
:10295000EA01806207303CE51307B9F18091EA0192
:10296000806108304CE5140780F18091EA018064B1
:102970002CC00D305CE5150709F4C0C090F48091BF
:10298000EA018E7F0B309CE51907F9F08091EA018E
:102990008C600C30ACE51A07C0F08091EA018D7FA5
:1029A00014C00F30BCE51B0709F4B8C008F4AAC076
:1029B0000031FCE51F0709F4B5C08091EA018F7B67
:1029C00001312CE5120709F0D8C38093EA01D5C381
:1029D0000F3F3CE5130709F4B3C0A8F50A3F5CE5D7
:1029E000150709F479C0C0F404319CE5190709F40E
:1029F000B5C008F4A1C00531BCE51B0709F0BDC393
:102A00008091EA0182FB992790F921E0922790FBBF
:102A100082F990FB83F9D9CF0C3FECE51E0709F44E
:102A200075C008F45DC00D3F2CE5120709F472C0B3
:102A30008091EB0183600E3F3CE5130709F09DC3D5
:102A40008093EB019AC301364DE5140709F491C058
:102A500090F401308DE5180709F489C008F474C0BA
:102A600060E00230ADE51A0709F087C38EE090E020
:102A70000E94FC2682C30D3ABDE51B07E9F060F415
:102A80009091EA01892F8E7F90FF8160053AFDE5E4
:102A90001F0709F49ACF71C30E3A2DE5120751F1C1
:102AA0000F3A3DE5130709F068C39091EB01892FB8
:102AB000877F93FF8860C4CF8091EB018860C0CF8F
:102AC0008091EA01826081CF8091EA0184607DCFAC
:102AD0008091EA01886079CF8091EB018160B0CF6D
:102AE0008091EB018260ACCF0E947C0C8091EA0166
:102AF00080686BCF8091EB01877FA2CF8091EA0144
:102B00008B7F63CF8091EA01877F5FCF8091EB015C
:102B10008E7F96CF8091EB018D7F92CF8091EA01DD
:102B20008F7E53CF8091EA018F7D4FCF0E947C0C26
:102B30008091EA018F7749CF8091EA01837F45CF69
:102B40008091EB018C7F7CCF8091EB01982F909549
:102B500091708E7F892B90FB81F972CF0E947C0C43
:102B60009091EA01892F97FB87F980582ECF61E079
:102B70007DCF9091EA01892F8F7E94FF806125CFD0
:102B800085E3DCCE85E3E0C30E947C0C5FEF84E349
:102B90009CE0515080409040E1F700C000000E944E
:102BA000C7088091EB0182FB882780F991E0892793
:102BB0000E94380CF701868197810097C1F10E942D
:102BC00000068C01F701C280B580B2943FE0B322C9
:102BD0008091D1018770C1F0AC2CCC20B1F0812F55
:102BE000807F803421F080E2800F883068F080910F
:102BF000EB0182FF09C082E00E941C0C8091D10190
:102C00008770AA24A3948111A12C912E92942FE075
:102C10009222FBE0F91508F481C0E92DF0E0EC5BAD
:102C2000F84D0C947D2681E0C3CF80E0C1CF828136
:102C300000811181882369F0C8010E94040AD82EFE
:102C4000682FC8010E94FE07B8018D2D0E94E70978
:102C5000B6CFC8010E94CA07D82EF6CF212F2F70F9
:102C6000D22E107F19F0D29490EFD922CC20B9F057
:102C7000DD2069F080E2800F883010F0011109C07A
:102C80008091DA01D82AD092DA010E94980B802F25
:102C900043C08091E302D82AD092E302F6CF802F7E
:102CA0000E948D0FDD20D1F180E2800F883010F07E
:102CB000011104C08D2D0E948C0706C0D094809114
:102CC000E302D822D092E3020E94980B27C0312F52
:102CD0003F70D32E107F103219F0D29480EFD8229B
:102CE000002351F0013009F48EC0CC2009F497C0C4
:102CF000BB2009F464C0CBCF8091EB0182FD38C0CA
:102D0000CC2081F1DD2039F08091DA01D82AD092EF
:102D1000DA010E94980B80E00E944410E92DE850EF
:102D2000FF0B349710F40E94E704AA20B1F08091C1
:102D3000D10180FD12C0D70112961C928595859510
:102D400085950E94540CC7010E9423138091D101E4
:102D50008595859585950E940F0C60E0C7010E94BE
:102D6000710A86CC80E00E948D0FDD20B9F2A2CFDF
:102D7000CC2049F1B11004C08091DD018D2920C023
:102D800041E0B41210C082FFC9CF8091DD01D82A82
:102D9000D81621F20E94AF049093DC018093DB01EE
:102DA000D092DD01BBCF55E0B512E6CF0E9481077E
:102DB000909175018D2D892B8913809375018D2D2F
:102DC0000E94830FABCFB11003C00E94810712C0D5
:102DD00081E0B81213C08091DA018D2109F49ECFF1
:102DE0000E948107909175018D2D8095892389130B
:102DF000809375018D2D0E947C0F90CF95E0B916C0
:102E000009F48CCFE2CFCC2029F0A5E0AB1508F473
:102E100085CFD5CFB4E0BB1508F480CFEBCFBB2076
:102E200049F3093349F4EFEFF7EE23E0E150F040C6
:102E30002040E1F700C00000802F0E948D0F6ECF70
:102E4000812F86958695837061F0813009F066CF79
:102E5000C8019370C11002C090E080E00E94BB04E2
:102E60005DCFC8019370C11002C090E080E00E9465
:102E7000D10454CF812F837089F5C1104FCF402FDB
:102E8000429546954770440F440F802F8F70042E53
:102E900001C0880F0A94EAF7202F207104FF07C0B1
:102EA0002FE030E001C0220F4A95EAF720951695F1
:102EB00016951370123069F050F43091DE01113024
:102EC00029F0822B83230E94770C28CF832B822B1F
:102ED000FACF282B8091DE018227F5CF8695CC2072
:102EE00011F0812F8170882309F418CF402F42956B
:102EF00046954770440F440F802F8F70042E01C0F9
:102F0000880F0A94EAF7202F207104FF07C02FE0F2
:102F100030E001C0220F4A95EAF7209516951695E4
:102F20001370123069F050F43091C203113029F05F
:102F3000822B83230E94FE0BF1CE832B822BFACFB0
:102F4000282B8091C2038227F5CF1F70CC2029F057
:102F5000812F0E94540C802F33CF802F0E947C0F32
:102F6000812F0E940F0CDACE023F89F160F4003FFE
:102F7000B9F0013F81F0CC2009F464C0B11087CED4
:102F8000812F8F7128C0033F49F1043FA1F7809141
:102F9000EB0182FD2FC0812F8F71CC2011F31BC05C
:102FA000CC2081F034E03B1508F4B8CE1F7181E0ED
:102FB00090E0012E01C0880F0A94EAF79091C203B5
:102FC0008927B8CF45E04B1508F4A8CEEFCF812F65
:102FD0008F71C110C6CF0E94540CA0CE80E0CC20CF
:102FE00009F4A8CF1F7181E0012E01C0880F0A9457
:102FF000EAF7A0CFCC20C9F08091D101877084304E
:1030000041F40E949307812F8F710E940F0CA12C15
:1030100085CE54E05B15D8F31F71812F0E94540CAC
:1030200063E0812F0E94600CF2CF84E08B1530F4B6
:103030000E94930764E0812F8F71F4CF81E00E949A
:103040001C0CE5CFBB2059F0093309F0F5CE9FEFFA
:10305000A7EEB3E09150A040B040E1F7EBCE812F56
:103060008F717FCF552029F0DC0118968C9185FF58
:1030700022CC033FBCE51B0709F436CC08F01FCC7B
:10308000083DFCE51F0709F42BCC093D2CE5120790
:1030900009F436CC073D3CE5130771F526E241EE15
:1030A00061EE1ACC80917201909173010817190793
:1030B00081F4109273011092720110929203109297
:1030C0009303109294031092950310929A03109216
:1030D000990380919B0390919C03009751F2A8E083
:1030E0008A16910408F0DCCB642D0E9445058111FD
:1030F000C0CF81E00E94DE0FD70112968C91882309
:1031000009F418C11092C5030330BDE51B0708F090
:10311000FACB0A3FECE51E0730F4C80182509C450B
:10312000449708F0FBCB0E94BA0A9093EB0180937E
:10313000EA0102314CE5140709F4F8CC08F048CC58
:1031400009308CE5180709F4CFCC08F012CC053013
:10315000ACE51A0709F4BCCC08F0F9CB0330ECE578
:103160001E0709F4ADCC08F0AFCC8091EA01816074
:1031700002302CE5120709F428CC6091EA01109185
:10318000EB0184E090E00E94FC26612F82E290E057
:103190000E94FC260E947C0C23CB0031FFE51F0718
:1031A00009F419CB01312FE5120709F430CB0F35A3
:1031B000EDE51E0709F42FCB0036FDE51F0749F0AA
:1031C0000E352DE51207F9F480910001882309F4EA
:1031D00022CB1092000180E00E94DE0F01CB61E063
:1031E000C7010E94710A8C01D70112965C905110A0
:1031F00043CA00313FE5130709F405CB01314FE520
:10320000140709F406CB80910001882309F431CF1B
:10321000480130EE831A91084090DD0180917501DC
:10322000482A8091DA01482A48E08416910408F07F
:10323000F9CA98012770332781E090E001C0880F18
:103240002A95EAF7552009F4EACA482AD7018D9150
:103250009C910E94CA0721E030E0190102C0220CB3
:10326000331C8A95E2F7E0919B03F0919C03FF8366
:10327000EE8360907201709073011D822D81E22FA8
:10328000F0E0EE0FFF1FED5AFD4FC080D180C1145A
:10329000D10409F41ECF411005C0D60112968C91BD
:1032A0008111FACAF601838190E082219321892B52
:1032B00009F4F2CA8085982F977009F487E0F8E046
:1032C0008F16910408F0C8CA552009F4C1CA869522
:1032D0008170882309F4E0CAD601AD90BC900A152C
:1032E0001B0519F4552009F4D7CAEE81FF81CE16CB
:1032F000DF0609F4D1CAD6011D96ED91FC913097F5
:1033000021F08081882309F4C7CA642DC6010E9478
:103310004505882309F4C0CA0A151B05C1F4011527
:103320001105C9F0511019C0A614B70409F0B4CAA8
:10333000512C13C00631BCE51B0709F03BCC809132
:10334000740181111FCC89E20E949A0796CAA114C8
:10335000B10451F7512CB12CA12C80E00E94DE0F5A
:10336000D0929C03C0929B0381E080939803F60166
:1033700085818093960351100EC0AB2861F0F60151
:10338000808191819C0124503109213A310508F056
:1033900067CA0E949A07D6011696AD90BC90C501E7
:1033A0009A9581159F4110F4E0EEBE227724739424
:1033B000C5010197803B9D4508F0712CD6011996F7
:1033C000ED91FC911A97309731F01B966D917C919D
:1033D00081E009957822772079F0F601868197813E
:1033E0000E94350880939703C501F8E08F16910479
:1033F00008F039CA0E94F4040E94980B3BCA0A35AF
:10340000EDE51E0709F40FCC68F401152CE5120751
:1034100009F4BACB0E3D1C4509F0CCCB0E94B81282
:103420000E94510F0C354DE5140709F4BACB08F48E
:10343000FCCB073A1D45A1F3BDCBCF93DF93809121
:103440008A01807F09F049C080918701882309F4AF
:1034500044C08091CE01D0918D0160918501709121
:103460008601A0918801B0918901C62FC723D81782
:10347000A1F190E0109711F0CF3F19F401968770F9
:10348000F6CF9C0143E0220F331F4A95E1F7F90183
:10349000E257FE4F41814713F1CF40814613EECFF3
:1034A00042814111EBCF438154814A1B5B0B4F3A60
:1034B000510520F780918A018F70806180938A0185
:1034C000F901ED56FE4F80818F708061808385E821
:1034D00091E00E9423130E94C007DF91CF910895CD
:1034E000A5E1B0E0E6E7FAE10C9492268C0185E0D4
:1034F000F801DE01519601900D928A95E1F7F801ED
:10350000E28065E8A62E61E0B62E60918801709198
:1035100089016115710509F45CC1909185014091A3
:103520008601892F84238F3F09F453C12081318183
:10353000C380D480F0908701F601E61BF70BFF20D3
:1035400009F411C180918A01582F507FEF3AF1059B
:1035500008F0C4C0511175C0FE2C43131EC0921355
:103560001CC060918B0170918C01F80146815781DC
:103570006417750791F4E11010C08F70806180931B
:103580008A01C5010E94231380918A01F801858375
:103590008F2D6596EAE00C94AE26C114D10429F073
:1035A000822F83238F3F09F02FC180E0F82FF17025
:1035B000DF2E80FF3CC08091CE0140918D018413AD
:1035C00015C0298B3A8B89899A890E94330A292F41
:1035D00022952F702230F8F0243020F59F70F9F0FA
:1035E000F8019581907FD9F4D12C1FC090E0FC01A7
:1035F00053E0EE0FFF1F5A95E1F7E257FE4F51815E
:10360000351306C05081251303C05281E5120FC047
:1036100001968770D4CF9F7011F0882329F3805EC4
:10362000883010F3C8010E942313FD2CB1CFEE2087
:1036300009F4AECF80918A01816080938A01F12CD8
:10364000A7CF43131BC0921319C040918B01509117
:103650008C01F801268137814217530779F4E11074
:103660000DC08583C8010E94231388E0F801A5E8F6
:10367000B1E001900D928A95E1F78ACFC8010E94CE
:10368000400A882339F1EE2029F180918A018032A5
:10369000A0F020918501309186013A8729871B8609
:1036A000DD86CC868E8780918B0190918C01988BE2
:1036B0008F87CE0109960E94231388E0F801A5E8C0
:1036C000B1E001900D928A95E1F70E941D1AFF2446
:1036D000F3945ECFC8010E942313F9CF51110AC0A1
:1036E00085E891E00E94231388E0F50111928A9504
:1036F000E9F7A5CF431318C0921316C040918B0170
:1037000050918C01F801268137814217530761F4EB
:10371000E1100AC08583C8010E94231388E0F501E7
:1037200011928A95E9F734CFC8010E94400A882394
:1037300089F2EE2079F280918A01803208F4BDCFBF
:1037400020918501309186013A8329831B82DD8295
:10375000CC828E8380918B0190918C0198878F838E
:10376000CE010196A8CFEF3AF105C0F6FE2CEE206F
:1037700009F4B0CF43131FC092131DC020918B01D9
:1037800030918C01F801868197812817390799F4C7
:1037900090918A0190FD69CF907F09F466CF809166
:1037A0008A018583903F09F45DCF982F907F905FC9
:1037B0008F70892B56CFC8010E94400A81117DCF9E
:1037C00080918A01816080938A01C8010E9423133D
:1037D000DFCEEE2009F47ECFC8010E94400AF82E09
:1037E000882309F477CF88E0F801A5E8B1E00190DB
:1037F0000D928A95E1F780918501909186010E9452
:10380000330A0E941D1AC4CE81E08E25CFCEA0E1DE
:10381000B0E0EDE0FCE10C949A2629873A874B87CB
:103820005C876D877E878F87988BCE0109960E9473
:10383000701A811112C088E0FE013996DE011196DE
:1038400001900D928A95E1F78C859D85892B29F051
:1038500089859A8589238F3F81F58091CE0190914A
:103860008D01891317C06096E2E00C94B62693E0B0
:10387000AA0FBB1F9A95E1F7A257BE4F98E0FE0131
:10388000319601900D929A95E1F780938D010E94F7
:10389000C007E3CFB8E08B9FC001112482579E4F31
:1038A0000E94701A8823F9F28091CE0190E001966F
:1038B000877099278093CE01D0CFA0918D01B0E081
:1038C000CD010196877099272091CE0128171906FE
:1038D00071F60E947C0C10928D011092CE0188E04E
:1038E000E5E8F1E0DF011D928A95E9F7B6CF0F9385
:1038F0001F93CF93DF938091E502E091E402CCE047
:1039000081111AC0DF91CF911F910F910895D1E0DD
:10391000DE0FD093E4020E2F10E0EC9FF001112493
:10392000EA51FD4F83819481892B29F08081918117
:1039300089238F3F51F4ED2F8091E502E81738F38A
:103940001092E5021092E402DDCFC09FD001C19F2A
:10395000B00D1124AA51BD4F16968D919C911797C9
:10396000892B29F418968D919C91019651F4208110
:1039700031814281538164817581868197810E9462
:10398000071CC09FF001C19FF00D1124EA51FD4FAB
:10399000148213821092E302CECF10928903109208
:1039A000880310920F0180918703809386030E9401
:1039B00093050E94771C0895B0E0A0E0E2EEFCE1E0
:1039C0000C948B26C091860397E0892E01E010E0CD
:1039D0002CE0322E3EEF932E4424439480918703B3
:1039E0008C1309C00E94771C0E949305CDB7DEB7E7
:1039F000E1E10C94A726D0E0FE01EE0FFF1FE25894
:103A0000FC4F80819181889ED001899EB00D112448
:103A1000AA5BBC4F14962C911497211158C050905A
:103A2000E502E6EEF2E030E020E0712C5D012515C4
:103A300008F04BC0E284F384D501CD90DC906FEFA9
:103A40007FEF612C462D50E0DA01AA0FBB1FAC0DB1
:103A5000BD1D0D90BC91A02D109731F0EA16FB060C
:103A600009F4BA016394EECF6F3F7607A9F1D8014C
:103A700002C0AA0FBB1F6A95E2F77A2AB801062C8A
:103A800002C0660F771F0A94E2F7AB01415051095B
:103A900074161506F9F4329EF001339EF00D1124D0
:103AA000EA51FD4F889ED001899EB00D1124AA5B7A
:103AB000BC4F12962D913C911397378326839082A9
:103AC00091829187808715964C920E946505219678
:103AD000C37084CF148213822F5F3F4F3C96A7CFD1
:103AE000A9E1B0E0E6E7FDE10C948A26498B5A8B08
:103AF0006B8B7C8B8D8B61111092E3021D861E8671
:103B00001F86188A85E0FE017196DE0119960190E4
:103B10000D928A95E1F78091EB0182FF1CC00E9413
:103B2000AF042091CF013091D001821B930B8838D4
:103B3000934120F08091D10182FFEBC10E94AF043C
:103B40002091DB013091DC01821B930B883893417B
:103B500010F00E9481078C859D85892B31F0898525
:103B60009A8589238F3F09F0C0C129853A854B8505
:103B70005C856D857E858F8598890E94071CC3C0F2
:103B800048EFC4164CE5D40629F4882379F00E9446
:103B9000CD1CEBCF69EFC6166CE5D60639F4882349
:103BA00029F080910F018111F2CFAFC106E413E03B
:103BB000E12CB12CA12C88248394912C2EEF522E31
:103BC00044244394F8014081518166246A94762C00
:103BD00020E0822F90E0FC01EE0FFF1FE40FF51FA5
:103BE000608171816115710531F0C616D70609F43F
:103BF0003C012F5FEECFF12CFFEF6F167F0609F42B
:103C000044C0F8014481F0900F018F2D411180E0F4
:103C1000F82FF170FF2EF801258086819B8599236E
:103C200009F4F2C0FF2009F4EFC0211014C0A40170
:103C3000062C01C0440F0A94EAF7842B86838091F6
:103C4000E1029091E202C29730F462E370E0709377
:103C5000E2026093E102C40102C0880F991F2A9515
:103C6000E2F70197F80126812817190671F480916F
:103C7000880390918903009709F449C00E94940435
:103C8000C39708F444C0F8014482EF28FFEFAF1A4D
:103C9000BF0A095F1F4F28E0A216B10409F092CFB6
:103CA0008B85882309F40CC1EE2009F409C10E9418
:103CB000AF0490938903809388038091E502883054
:103CC00010F591E0980F9093E50298E0FE01399687
:103CD000DE01119601900D929A95E1F73CE0839FE9
:103CE000C00111248A519D4F28E0FE013196DC016C
:103CF00001900D922A95E1F72FEF3FEFFC013187FC
:103D00002087D386C2866996E2E10C94A62680912C
:103D1000860350918703982FF0E0E0E0851314C0EC
:103D2000909386030E171F0709F4AFCF90E0FC01B4
:103D3000EE0FFF1FE258FC4FB182A0820196837004
:103D4000992780938703A1CF282E312CF101EE0F04
:103D5000FF1FE258FC4F20813181F7E0F29FD00134
:103D6000F39FB00D1124AA5BBC4F2D913C9111978C
:103D7000398F288F40E020E030E0E32FF0E0EE0FB5
:103D8000FF1F688D798DE60FF71F608071806114C9
:103D90007104E1F0F8010190F081E02DFF8BEE8BD2
:103DA00020E005C06616770609F44F2D2F5FE22F3D
:103DB000F0E0EE0FFF1F6E897F89E60FF71F60812D
:103DC00071816115710571F73F5FD7CF4423C9F049
:103DD000F801231708F0FD014482E017F10721F4F0
:103DE00090938603F42E51CF981305C0EA17FB0772
:103DF00011F49F5F937091012F5F3F4F822F83706B
:103E00008DCFF0E0E0E0F7CF90E0211020C0B401CA
:103E100002C0660F771F2A95E2F79B0121503109F6
:103E20008217930731F4442309F448C0C5010E9466
:103E30006505C401062C01C0880F0A94EAF7982F83
:103E40009095F801868189238683F22C1ECF9C01F0
:103E5000062C02C0359527950A94E2F7A901417016
:103E60005527BC016150710986239723892B11F5D1
:103E7000452B01F1F80182819381892BC1F01B82CE
:103E80001C821D821E8259825A820E94AF04816068
:103E9000582F9D838C83F801828193818F8398872B
:103EA00029813A814B816D817E810E94071CF80136
:103EB0001582BFCFF22FF1702F2EBBCF2F2CB9CF91
:103EC0009091860380918703981731F00E94DC1C43
:103ED000EE2009F44ACE17CF0E94771C1092890376
:103EE000109288030E949305F3CF61E0CE010996FA
:103EF0000E94710A6C018B85F7EFCF16FCE5DF0697
:103F000009F03ECE882309F451CE81E080930F0161
:103F10002CCE82E00E941C0C11CEA5E0B0E0E3E9BB
:103F2000FFE10C9498268C019093DE028093DD02D1
:103F3000011580E21807C0F4802F0E948D0FC80180
:103F40000E9435089801205E31092830310518F0AB
:103F50000115110531F40E947C0F2596E4E00C94C4
:103F6000B4260E94670FF9CF80EF89838A831B8272
:103F70000E94AF048160782F9D838C8349815A8190
:103F80006B818D810E94701DE8CFA5E0B0E0EBEC65
:103F9000FFE10C949A269093DE028093DD02811556
:103FA00020E2920730F40E94EE112596E2E00C9494
:103FB000B62680EF89838A8381E08B830E94AF04D9
:103FC0008160782F9D838C8349815A816B818D819B
:103FD0000E94701DEACF1F920F920FB60F9211240C
:103FE0002F933F934F935F936F937F938F939F9301
:103FF000AF93BF93CF93DF93EF93FF93D091E900FB
:10400000DF708091EC00C82FC17080FDC0E8109275
:10401000E9008091F000877F8093F00078940E94FF
:10402000880C1092E9008091F00088608093F00085
:10403000CD2BCF70C093E900FF91EF91DF91CF912D
:10404000BF91AF919F918F917F916F915F914F91B0
:104050003F912F910F900FBE0F901F9018951F92B8
:104060000F920FB60F9211242F933F934F935F93AC
:104070006F937F938F939F93AF93BF93EF93FF9330
:104080008091E10082FF09C08091E20082FF05C0BB
:104090008091E1008B7F8093E1008091DA0080FFC6
:1040A00024C08091D80080FF20C08091DA008E7FEC
:1040B0008093DA008091D90080FF9DC080E189BDA6
:1040C00082E189BD09B400FEFDCF81E08093B80391
:1040D0008091AB03811109C00E940B030E94D6039B
:1040E0008091E20084608093E2008091E10080FF93
:1040F00017C08091E20080FF13C08091E2008E7FA4
:104100008093E2008091E20080618093E2008091E0
:10411000D80080628093D80019BC85E08093B803F2
:104120008091E10084FF2BC08091E20084FF27C0D2
:1041300080E189BD82E189BD89B5982F917080FFAA
:10414000FBCF8091D8008F7D8093D8008091E100D3
:104150008F7E8093E1008091E2008F7E8093E20069
:104160008091E20081608093E2008091B90388230E
:1041700009F447C084E08093B8038091B80380912C
:10418000E10083FF27C08091E20083FF23C080917C
:10419000E100877F8093E10082E08093B803109272
:1041A000B9038091E1008E7F8093E1008091E2006D
:1041B0008E7F8093E2008091E20080618093E20034
:1041C00042E060E080E00E94A4038091F0008860FB
:1041D0008093F000FF91EF91BF91AF919F918F91EC
:1041E0007F916F915F914F913F912F910F900FBEF3
:1041F0000F901F90189519BC1092B8031092AB0342
:1042000074CF8091E30087FD93E09093B803B5CF1E
:1042100078941F921FB61F9211248F939F93AF9390
:10422000BF938091A4039091A503A091A603B091A0
:10423000A7030196A11DB11D8093A4039093A5032C
:10424000A093A603B093A703BF91AF919F918F91C5
:104250001F901FBE1F9018951F921FB61F9211240A
:104260008F939F93AF93BF938091A303811113C04A
:104270008091A4039091A503A091A603B091A703F8
:104280004196A11DB11D8093A4039093A503A09313
:10429000A603B093A703BF91AF919F918F911F90F9
:1042A0001FBE1F901895CDB7DEB7E4970FB6F894F0
:1042B000DEBF0FBECDBF85B7806885BF85B780687C
:1042C00085BF84B7877F84BF0FB6F894A895809187
:1042D0006000886180936000109260000FBE80E8EB
:1042E00090E00FB6F89480936100909361000FBE48
:1042F00084EA95E090936901809368010E94540BD1
:104300000E94C80A0E940B030E94D6038091E2001B
:1043100084608093E20078948091B8038823A1F0B0
:104320001091E9001F709091EC00892F817090FD31
:1043300080E8182B1092E9008091E80083FD0E942C
:10434000880C1F701093E90082E084BD93E095BD56
:104350009AEF97BD80936E000E94A10A811102C05E
:104360000E94A80980E90E94A60580EF0E94A60588
:1043700087E90E94A60584E30E94A6050EE411E0E9
:10438000B8E5EB2EB1E0FB2ED8018D918D018F3F6A
:1043900011F00E94A605E016F106B1F788E0EAEFF9
:1043A000F1E0DF01282F1D922A95E9F7E2EEF1E016
:1043B000DF011D928A95E9F790E080E00E94F626E1
:1043C000883E9E4F21F40E94A10A811102C00E94E2
:1043D000B81282E090E00E94EE268093EE010E94E7
:1043E000BA0A9093EB018093EA010E940612EFE370
:1043F000FCE93197F1F700C000000E94061280919D
:10440000FA0180FF08C06FEF7FEF90E080E00E942C
:104410001A270E94C70883E090E00E94EE260E94BF
:10442000770C81E091E09093A00380939F03A8E133
:104430004A2E512C8E010F5F1F4F8091B803E0E18F
:10444000EE2EF2E1FF2E853009F48DC00E94061297
:104450006FEE862E61E0962E7AEF672E71E0772E52
:10446000D301F401219131918D919D9141E0E73F7C
:10447000F40709F482C028173907A1F3312CD301BE
:10448000ED90FD903D01F401A190B1904F01AE146B
:10449000BF0459F1AE24BF24212CCC24C394D12CC9
:1044A000C6018A219B21892BB1F028AA39AA21E0D3
:1044B000C6018E219F21892B09F420E02AAB0E949E
:1044C000AF048160782F9CAB8BAB48A959A96AA92E
:1044D0008CA90E94701D2394CC0CDD1CFAE02F12D5
:1044E000DFCFF4013297F182E082339424E032127C
:1044F000C6CF0E94A30463C08091B803843011F139
:104500001092A303F0E40FB6F894A89540926000CF
:104510000FBEF093600083B7817F846083BF83B751
:10452000816083BF7894889583B78E7F83BF0FB6F1
:10453000F894A89580916000886180936000109243
:1045400060000FBE8091B703882369F00E940612B5
:10455000EAEFF1E081919191892B09F0AFC322E05C
:10456000E230F207B9F78091B803853009F4C4CF7F
:104570000E947C0C0E94E70469CF2817390709F0D4
:104580007DCF0E94AF047C018091EC019091ED0100
:10459000E816F906A1F08FEF8BA78CA71DA60E9445
:1045A000AF048160782F9FA78EA74BA55CA56DA552
:1045B0008FA50E94701DF092ED01E092EC018091B8
:1045C000990390919A03892B09F43EC040918E0380
:1045D00050918F0360919003709191032FB7F894DD
:1045E0008091A4039091A503A091A603B091A70385
:1045F0002FBF841B950BA60BB70B40918A035091DC
:104600008B0360918C0370918D0384179507A60727
:10461000B707D0F08091990390919A030E94EE1110
:1046200010929A031092990310928E0310928F03A6
:10463000109290031092910310928A0310928B03B0
:1046400010928C0310928D0380910F01882301F149
:1046500080918803909189030097D1F00E9494047F
:104660002091E1023091E2022817390788F49091F5
:10467000860380918703981709F44DC00E94DC1CC3
:104680001092E2021092E1021092890310928803C4
:104690000E94E7049091F701891721F08093F701B8
:1046A0000E94A3048091B803843009F0C6CE83E051
:1046B0008093E9008091E80082FFBFCE8091E800FE
:1046C00090E085FF05C00E942A03882369F191E0EC
:1046D0008091E8008B778093E800992309F4ADCEB0
:1046E000E090DF02F090E0028981E114F104D1F161
:1046F0008E3F09F07AC08A81833020F08550833064
:1047000008F073C0EA81EE3008F06FC0F0E0E05BC3
:10471000F84D0C947D260E94771C1092890310920C
:1047200088030E949305B4CF30E2E32EF12CCE0132
:1047300001966C018091E80085FD0AC08091E80037
:104740008B778093E8000E942A03882399F3BFCFD8
:104750008091F100D6018D936D01B1E0EB1AF10863
:1047600049F7B5CF8D3009F4BCC0B8F4843009F4F2
:104770009FC048F4823049F108F08BC0813009F1C4
:104780008FEF898332C0863009F4A8C008F49BC03B
:104790008C30B1F780E18A8328C0813109F401C1EE
:1047A00040F48F3009F4CEC008F49FC00E94EB089B
:1047B0001CC0833109F422C108F4F5C08E3F01F713
:1047C000A1CF1A8289E08B8310C08A81823009F4DC
:1047D0008BC2833099F1813099F60E94A3040E9424
:1047E00083266B837C838D839E838091B803843082
:1047F00009F023CEF090E9003F2D3F70F32E909109
:10480000EC00892F817090FD80E8F82A82E0809387
:10481000E9008091E80080FF0CC050E040E060E2D9
:1048200070E0C8010E945B038091E8008E7780935E
:10483000E8008F2D8F708093E900FFCD80910D01EE
:1048400090910E01892B89F28091FA019091FB01E0
:104850009827892798279C838B838091FC019091CE
:10486000FD019827892798279E838D838091FE01DB
:104870009091FF0198278927982798878F838091A7
:104880000002909101029827892798279A878987A3
:10489000ACCF8A81823009F073CF6B817C818D81AE
:1048A0009E810E94832686E290E00E94FC269DCF96
:1048B0004C816B818A810E94B809982789279827A3
:1048C0009E838D8392CF2D813E81322723273227ED
:1048D0004C816B818A810E94FB0887CF0E943A0934
:1048E00084CFE1E0EA8389EA6ECFEC80F12CFDE130
:1048F000EF16F10408F079CFAA80BB80BA24AB246C
:10490000BA249E012F5F3F4F6901E20EF31EC501DD
:10491000895A9D4FCE14DF0409F467CF39EAA316F4
:1049200031E0B30660F40E94EE26D60114968C9313
:10493000FFEFAF1ABF0A2FEFC21AD20AE8CFF60173
:104940001482F6CF80910D0190910E01892B09F40C
:104950004CCFCC80D12C3DE1C316D10408F045CF1B
:10496000EA80FB80FE24EF24FE24CE0101965C0148
:10497000CE0CDF1CC701895A9D4FCE14DF0409F409
:1049800034CFA9EAEA16A1E0FA0620F4F501648121
:104990000E94FC26FFEFAF1ABF0A2FEFE21AF20ABD
:1049A000E9CF85E0F8CECC80D12C3DE1C316D1040F
:1049B00008F01BCFAA80BB80BA24AB24BA24CE0156
:1049C00001967C01C80ED91EC5018796CE14DF045E
:1049D00009F40BCFA0E9AA16A1E0BA0658F40E9488
:1049E000EE26F7018483BFEFAB1ABB0AEFEFEE1A96
:1049F000FE0AEACFD70114961C92F5CFCC80D12CB9
:104A0000FDE1CF16D10408F0F0CEEA80FB80FE2451
:104A1000EF24FE2420E9E21621E0F20608F0E5CEBC
:104A200080E991E08E199F098C159D0508F4DDCE73
:104A3000CE0101965C01CE0CDF1CC7018796EC14F9
:104A4000FD0409F4D2CEA0E9EA16A1E0FA0620F4AA
:104A5000F50164810E94FC26FFEFAF1ABF0A2FEF19
:104A6000E21AF20AEACF88E0E1E1F1E0DE01919694
:104A700001900D928A95E1F780E2D8011D928A9506
:104A8000E9F785E0898388E0FE01B196DE0115969D
:104A900001900D928A95E1F7A8CE8CE58983B1E06B
:104AA000BA831B821C82A1CE8C81682F70E0762F86
:104AB00066278B81860F972F911D092E000CAA0B5C
:104AC000BB0B25E0880F991FAA1FBB1F2A95D1F7A2
:104AD000AC01BD01405E5F4F6F4F7F4F48175907D4
:104AE0006A077B0708F481CE8C35E1E09E07A105BB
:104AF000B10508F07ACE4D35F1E05F07610571052B
:104B000020F04CE551E060E070E0481B590BBC011F
:104B1000605C7E4FC8010E94C12667CE4EE150E026
:104B20006FEF70E0CE0103960E94D72680910D01B1
:104B30008983EA825ACE81E090E09093E0028093EC
:104B4000DF0282E390E09093F9018093F8010E94E4
:104B5000AF044BCE80910D018983EA828091F801E8
:104B600032CE40E250E06FEF70E0C8010E94D726DD
:104B70003CCE8B81843009F460C018F5882309F499
:104B800054C0833009F031CE6C812AE0CE01819689
:104B9000FC01322F11923A95E9F7683008F08CC089
:104BA000629FB001112469547E4F4AE050E00E9498
:104BB000DE2680E089838AE0FE01B196DE0112964E
:104BC00067CF853009F467C0863009F00ECE6C815E
:104BD0008AE0FE013596DE01919601900D928A954C
:104BE000E1F78BA19CA18115FCE59F0741F4209181
:104BF0000D0130910E01232B11F490E080E09CA375
:104C00008BA38FEF683068F42AE0629FB001112413
:104C1000695F7D4F4AE050E0CE0181960E942027D7
:104C200080E089830E94C80AE0CD80E2D8011D920D
:104C30008A95E9F788E08A83C6CD6C818AE0FE0117
:104C40003596DE01919601900D928A95E1F789A53E
:104C50009AA581154CE5940741F420910D013091FE
:104C60000E01232B11F490E080E09AA789A78FEF23
:104C7000683068F48AE0689FB001112469547E4F5F
:104C80004AE050E0CE0181960E94202780E089838F
:104C90000E94540BAACD6C812AE0CE018196DC01E2
:104CA000E22F1D92EA95E9F7683030F4629FB00177
:104CB0001124695F7D4F79CF8FEF7CCFE9BCF9BCC0
:104CC00009B400FEFDCF8091D8008F7D8093D8007D
:104CD0008091E00082608093E0008091E00081FD9F
:104CE000FCCF0E947C0C3FCC86E290E00E94EE2636
:104CF0001B821C821D828E8378CDEE0FFF1F0590D4
:104D0000F491E02D0994692796276927782787274A
:104D1000782708952F923F924F925F926F927F92E1
:104D20008F929F92AF92BF92CF92DF92EF92FF92BB
:104D30000F931F93CF93DF93CDB7DEB7CA1BDB0B67
:104D40000FB6F894DEBF0FBECDBF09942A8839880C
:104D500048885F846E847D848C849B84AA84B98413
:104D6000C884DF80EE80FD800C811B81AA81B9811F
:104D7000CE0FD11D0FB6F894DEBF0FBECDBFED0133
:104D80000895FB01DC0102C005900D924150504096
:104D9000D8F70895FB01DC0104C08D9101908019C2
:104DA00021F441505040C8F7881B990B0895DC014D
:104DB00001C06D9341505040E0F70895DC01CB01F4
:104DC000FC01F999FECF06C0F2BDE1BDF89A31961B
:104DD00000B40D9241505040B8F70895F999FECFB4
:104DE00092BD81BDF89A992780B50895A8E1B0E0F9
:104DF00042E050E00C94E026262FF999FECF92BDB8
:104E000081BDF89A019700B4021639F01FBA20BD8F
:104E10000FB6F894FA9AF99A0FBE08950396272FC1
:104E20000E94FD260E94FC26252F0E94FD26242F8D
:104E30000C94FD260196272F0E94FD260C94FC263B
:104E4000DC01CB0103C02D910E942B274150504023
:104E5000D0F70895262FF999FECF1FBA92BD81BDD4
:104E600020BD0FB6F894FA9AF99A0FBE01960895EC
:104E7000F894FFCF690D910D3F0F910D3F0FC40DB9
:104E8000E50D3F0FEE0EFB0E2E162E16671667165B
:104E900020178E168E168E163A17A517B417B4174C
:104EA00033254D255425F523F5238E259B25AA254D
:0C4EB000F523B125F523F523F523B925E2
:104EBC000191049A089004950890088F0401000150
:104ECC0001155FD432BC74C056818283E200E900C4
:104EDC00EA00B500B600B700CD008301CC008A0112
:104EEC0092019401210223022402250226022702A8
:104EFC002A02B300B4006F00700090F09734F1F404
:104F0C00F5C6F692939594964022320001DE00ACE1
:084F1C00003E04570477040075
:00000001FF
